{
    "abi": [
        {
            "inputs": [
                {
                    "internalType": "uint256",
                    "name": "minimum",
                    "type": "uint256"
                },
                {
                    "internalType": "address",
                    "name": "creator",
                    "type": "address"
                }
            ],
            "stateMutability": "nonpayable",
            "type": "constructor"
        },
        {
            "inputs": [
                {
                    "internalType": "uint256",
                    "name": "index",
                    "type": "uint256"
                }
            ],
            "name": "approveRequest",
            "outputs": [],
            "stateMutability": "nonpayable",
            "type": "function"
        },
        {
            "inputs": [
                {
                    "internalType": "address",
                    "name": "",
                    "type": "address"
                }
            ],
            "name": "approvers",
            "outputs": [
                {
                    "internalType": "bool",
                    "name": "",
                    "type": "bool"
                }
            ],
            "stateMutability": "view",
            "type": "function"
        },
        {
            "inputs": [],
            "name": "contribute",
            "outputs": [],
            "stateMutability": "payable",
            "type": "function"
        },
        {
            "inputs": [
                {
                    "internalType": "string",
                    "name": "description",
                    "type": "string"
                },
                {
                    "internalType": "uint256",
                    "name": "value",
                    "type": "uint256"
                },
                {
                    "internalType": "address payable",
                    "name": "recipient",
                    "type": "address"
                }
            ],
            "name": "createRequest",
            "outputs": [],
            "stateMutability": "nonpayable",
            "type": "function"
        },
        {
            "inputs": [
                {
                    "internalType": "uint256",
                    "name": "index",
                    "type": "uint256"
                }
            ],
            "name": "finalizeRequest",
            "outputs": [],
            "stateMutability": "nonpayable",
            "type": "function"
        },
        {
            "inputs": [],
            "name": "manager",
            "outputs": [
                {
                    "internalType": "address",
                    "name": "",
                    "type": "address"
                }
            ],
            "stateMutability": "view",
            "type": "function"
        },
        {
            "inputs": [],
            "name": "minimumContribution",
            "outputs": [
                {
                    "internalType": "uint256",
                    "name": "",
                    "type": "uint256"
                }
            ],
            "stateMutability": "view",
            "type": "function"
        }
    ],
    "devdoc": {
        "kind": "dev",
        "methods": {},
        "version": 1
    },
    "evm": {
        "assembly": "    /* \"Campaign2.sol\":441:2202  contract Campaign {... */\n  mstore(0x40, 0x80)\n    /* \"Campaign2.sol\":996:1118  constructor(uint256 minimum, address creator) {... */\n  callvalue\n  dup1\n  iszero\n  tag_1\n  jumpi\n  0x00\n  dup1\n  revert\ntag_1:\n  pop\n  mload(0x40)\n  sub(codesize, bytecodeSize)\n  dup1\n  bytecodeSize\n  dup4\n  codecopy\n  dup2\n  dup2\n  add\n  0x40\n  mstore\n  dup2\n  add\n  swap1\n  tag_2\n  swap2\n  swap1\n  tag_3\n  jump\t// in\ntag_2:\n    /* \"Campaign2.sol\":1063:1070  creator */\n  dup1\n    /* \"Campaign2.sol\":1053:1060  manager */\n  0x00\n  dup1\n    /* \"Campaign2.sol\":1053:1070  manager = creator */\n  0x0100\n  exp\n  dup2\n  sload\n  dup2\n  0xffffffffffffffffffffffffffffffffffffffff\n  mul\n  not\n  and\n  swap1\n  dup4\n  0xffffffffffffffffffffffffffffffffffffffff\n  and\n  mul\n  or\n  swap1\n  sstore\n  pop\n    /* \"Campaign2.sol\":1103:1110  minimum */\n  dup2\n    /* \"Campaign2.sol\":1081:1100  minimumContribution */\n  0x02\n    /* \"Campaign2.sol\":1081:1110  minimumContribution = minimum */\n  dup2\n  swap1\n  sstore\n  pop\n    /* \"Campaign2.sol\":996:1118  constructor(uint256 minimum, address creator) {... */\n  pop\n  pop\n    /* \"Campaign2.sol\":441:2202  contract Campaign {... */\n  jump(tag_6)\n    /* \"#utility.yul\":88:205   */\ntag_8:\n    /* \"#utility.yul\":197:198   */\n  0x00\n    /* \"#utility.yul\":194:195   */\n  dup1\n    /* \"#utility.yul\":187:199   */\n  revert\n    /* \"#utility.yul\":334:411   */\ntag_10:\n    /* \"#utility.yul\":371:378   */\n  0x00\n    /* \"#utility.yul\":400:405   */\n  dup2\n    /* \"#utility.yul\":389:405   */\n  swap1\n  pop\n    /* \"#utility.yul\":334:411   */\n  swap2\n  swap1\n  pop\n  jump\t// out\n    /* \"#utility.yul\":417:539   */\ntag_11:\n    /* \"#utility.yul\":490:514   */\n  tag_23\n    /* \"#utility.yul\":508:513   */\n  dup2\n    /* \"#utility.yul\":490:514   */\n  tag_10\n  jump\t// in\ntag_23:\n    /* \"#utility.yul\":483:488   */\n  dup2\n    /* \"#utility.yul\":480:515   */\n  eq\n    /* \"#utility.yul\":470:533   */\n  tag_24\n  jumpi\n    /* \"#utility.yul\":529:530   */\n  0x00\n    /* \"#utility.yul\":526:527   */\n  dup1\n    /* \"#utility.yul\":519:531   */\n  revert\n    /* \"#utility.yul\":470:533   */\ntag_24:\n    /* \"#utility.yul\":417:539   */\n  pop\n  jump\t// out\n    /* \"#utility.yul\":545:688   */\ntag_12:\n    /* \"#utility.yul\":602:607   */\n  0x00\n    /* \"#utility.yul\":633:639   */\n  dup2\n    /* \"#utility.yul\":627:640   */\n  mload\n    /* \"#utility.yul\":618:640   */\n  swap1\n  pop\n    /* \"#utility.yul\":649:682   */\n  tag_26\n    /* \"#utility.yul\":676:681   */\n  dup2\n    /* \"#utility.yul\":649:682   */\n  tag_11\n  jump\t// in\ntag_26:\n    /* \"#utility.yul\":545:688   */\n  swap3\n  swap2\n  pop\n  pop\n  jump\t// out\n    /* \"#utility.yul\":694:820   */\ntag_13:\n    /* \"#utility.yul\":731:738   */\n  0x00\n    /* \"#utility.yul\":771:813   */\n  0xffffffffffffffffffffffffffffffffffffffff\n    /* \"#utility.yul\":764:769   */\n  dup3\n    /* \"#utility.yul\":760:814   */\n  and\n    /* \"#utility.yul\":749:814   */\n  swap1\n  pop\n    /* \"#utility.yul\":694:820   */\n  swap2\n  swap1\n  pop\n  jump\t// out\n    /* \"#utility.yul\":826:922   */\ntag_14:\n    /* \"#utility.yul\":863:870   */\n  0x00\n    /* \"#utility.yul\":892:916   */\n  tag_29\n    /* \"#utility.yul\":910:915   */\n  dup3\n    /* \"#utility.yul\":892:916   */\n  tag_13\n  jump\t// in\ntag_29:\n    /* \"#utility.yul\":881:916   */\n  swap1\n  pop\n    /* \"#utility.yul\":826:922   */\n  swap2\n  swap1\n  pop\n  jump\t// out\n    /* \"#utility.yul\":928:1050   */\ntag_15:\n    /* \"#utility.yul\":1001:1025   */\n  tag_31\n    /* \"#utility.yul\":1019:1024   */\n  dup2\n    /* \"#utility.yul\":1001:1025   */\n  tag_14\n  jump\t// in\ntag_31:\n    /* \"#utility.yul\":994:999   */\n  dup2\n    /* \"#utility.yul\":991:1026   */\n  eq\n    /* \"#utility.yul\":981:1044   */\n  tag_32\n  jumpi\n    /* \"#utility.yul\":1040:1041   */\n  0x00\n    /* \"#utility.yul\":1037:1038   */\n  dup1\n    /* \"#utility.yul\":1030:1042   */\n  revert\n    /* \"#utility.yul\":981:1044   */\ntag_32:\n    /* \"#utility.yul\":928:1050   */\n  pop\n  jump\t// out\n    /* \"#utility.yul\":1056:1199   */\ntag_16:\n    /* \"#utility.yul\":1113:1118   */\n  0x00\n    /* \"#utility.yul\":1144:1150   */\n  dup2\n    /* \"#utility.yul\":1138:1151   */\n  mload\n    /* \"#utility.yul\":1129:1151   */\n  swap1\n  pop\n    /* \"#utility.yul\":1160:1193   */\n  tag_34\n    /* \"#utility.yul\":1187:1192   */\n  dup2\n    /* \"#utility.yul\":1160:1193   */\n  tag_15\n  jump\t// in\ntag_34:\n    /* \"#utility.yul\":1056:1199   */\n  swap3\n  swap2\n  pop\n  pop\n  jump\t// out\n    /* \"#utility.yul\":1205:1712   */\ntag_3:\n    /* \"#utility.yul\":1284:1290   */\n  0x00\n    /* \"#utility.yul\":1292:1298   */\n  dup1\n    /* \"#utility.yul\":1341:1343   */\n  0x40\n    /* \"#utility.yul\":1329:1338   */\n  dup4\n    /* \"#utility.yul\":1320:1327   */\n  dup6\n    /* \"#utility.yul\":1316:1339   */\n  sub\n    /* \"#utility.yul\":1312:1344   */\n  slt\n    /* \"#utility.yul\":1309:1428   */\n  iszero\n  tag_36\n  jumpi\n    /* \"#utility.yul\":1347:1426   */\n  tag_37\n  tag_8\n  jump\t// in\ntag_37:\n    /* \"#utility.yul\":1309:1428   */\ntag_36:\n    /* \"#utility.yul\":1467:1468   */\n  0x00\n    /* \"#utility.yul\":1492:1556   */\n  tag_38\n    /* \"#utility.yul\":1548:1555   */\n  dup6\n    /* \"#utility.yul\":1539:1545   */\n  dup3\n    /* \"#utility.yul\":1528:1537   */\n  dup7\n    /* \"#utility.yul\":1524:1546   */\n  add\n    /* \"#utility.yul\":1492:1556   */\n  tag_12\n  jump\t// in\ntag_38:\n    /* \"#utility.yul\":1482:1556   */\n  swap3\n  pop\n    /* \"#utility.yul\":1438:1566   */\n  pop\n    /* \"#utility.yul\":1605:1607   */\n  0x20\n    /* \"#utility.yul\":1631:1695   */\n  tag_39\n    /* \"#utility.yul\":1687:1694   */\n  dup6\n    /* \"#utility.yul\":1678:1684   */\n  dup3\n    /* \"#utility.yul\":1667:1676   */\n  dup7\n    /* \"#utility.yul\":1663:1685   */\n  add\n    /* \"#utility.yul\":1631:1695   */\n  tag_16\n  jump\t// in\ntag_39:\n    /* \"#utility.yul\":1621:1695   */\n  swap2\n  pop\n    /* \"#utility.yul\":1576:1705   */\n  pop\n    /* \"#utility.yul\":1205:1712   */\n  swap3\n  pop\n  swap3\n  swap1\n  pop\n  jump\t// out\n    /* \"Campaign2.sol\":441:2202  contract Campaign {... */\ntag_6:\n  dataSize(sub_0)\n  dup1\n  dataOffset(sub_0)\n  0x00\n  codecopy\n  0x00\n  return\nstop\n\nsub_0: assembly {\n        /* \"Campaign2.sol\":441:2202  contract Campaign {... */\n      mstore(0x40, 0x80)\n      jumpi(tag_1, lt(calldatasize, 0x04))\n      shr(0xe0, calldataload(0x00))\n      dup1\n      0x8a9cfd55\n      gt\n      tag_9\n      jumpi\n      dup1\n      0x8a9cfd55\n      eq\n      tag_5\n      jumpi\n      dup1\n      0x937e09b1\n      eq\n      tag_6\n      jumpi\n      dup1\n      0xd7bb99ba\n      eq\n      tag_7\n      jumpi\n      dup1\n      0xd7d1bbdb\n      eq\n      tag_8\n      jumpi\n      jump(tag_1)\n    tag_9:\n      dup1\n      0x03441006\n      eq\n      tag_2\n      jumpi\n      dup1\n      0x0a144391\n      eq\n      tag_3\n      jumpi\n      dup1\n      0x481c6a75\n      eq\n      tag_4\n      jumpi\n    tag_1:\n      0x00\n      dup1\n      revert\n        /* \"Campaign2.sol\":1930:2199  function finalizeRequest(uint256 index) public restricted {... */\n    tag_2:\n      callvalue\n      dup1\n      iszero\n      tag_10\n      jumpi\n      0x00\n      dup1\n      revert\n    tag_10:\n      pop\n      tag_11\n      0x04\n      dup1\n      calldatasize\n      sub\n      dup2\n      add\n      swap1\n      tag_12\n      swap2\n      swap1\n      tag_13\n      jump\t// in\n    tag_12:\n      tag_14\n      jump\t// in\n    tag_11:\n      stop\n        /* \"Campaign2.sol\":716:757  mapping(address => bool) public approvers */\n    tag_3:\n      callvalue\n      dup1\n      iszero\n      tag_15\n      jumpi\n      0x00\n      dup1\n      revert\n    tag_15:\n      pop\n      tag_16\n      0x04\n      dup1\n      calldatasize\n      sub\n      dup2\n      add\n      swap1\n      tag_17\n      swap2\n      swap1\n      tag_18\n      jump\t// in\n    tag_17:\n      tag_19\n      jump\t// in\n    tag_16:\n      mload(0x40)\n      tag_20\n      swap2\n      swap1\n      tag_21\n      jump\t// in\n    tag_20:\n      mload(0x40)\n      dup1\n      swap2\n      sub\n      swap1\n      return\n        /* \"Campaign2.sol\":687:709  address public manager */\n    tag_4:\n      callvalue\n      dup1\n      iszero\n      tag_22\n      jumpi\n      0x00\n      dup1\n      revert\n    tag_22:\n      pop\n      tag_23\n      tag_24\n      jump\t// in\n    tag_23:\n      mload(0x40)\n      tag_25\n      swap2\n      swap1\n      tag_26\n      jump\t// in\n    tag_25:\n      mload(0x40)\n      dup1\n      swap2\n      sub\n      swap1\n      return\n        /* \"Campaign2.sol\":1295:1658  function createRequest(... */\n    tag_5:\n      callvalue\n      dup1\n      iszero\n      tag_27\n      jumpi\n      0x00\n      dup1\n      revert\n    tag_27:\n      pop\n      tag_28\n      0x04\n      dup1\n      calldatasize\n      sub\n      dup2\n      add\n      swap1\n      tag_29\n      swap2\n      swap1\n      tag_30\n      jump\t// in\n    tag_29:\n      tag_31\n      jump\t// in\n    tag_28:\n      stop\n        /* \"Campaign2.sol\":764:798  uint256 public minimumContribution */\n    tag_6:\n      callvalue\n      dup1\n      iszero\n      tag_32\n      jumpi\n      0x00\n      dup1\n      revert\n    tag_32:\n      pop\n      tag_33\n      tag_34\n      jump\t// in\n    tag_33:\n      mload(0x40)\n      tag_35\n      swap2\n      swap1\n      tag_36\n      jump\t// in\n    tag_35:\n      mload(0x40)\n      dup1\n      swap2\n      sub\n      swap1\n      return\n        /* \"Campaign2.sol\":1126:1287  function contribute() public payable {... */\n    tag_7:\n      tag_37\n      tag_38\n      jump\t// in\n    tag_37:\n      stop\n        /* \"Campaign2.sol\":1666:1922  function approveRequest(uint256 index) public {... */\n    tag_8:\n      callvalue\n      dup1\n      iszero\n      tag_39\n      jumpi\n      0x00\n      dup1\n      revert\n    tag_39:\n      pop\n      tag_40\n      0x04\n      dup1\n      calldatasize\n      sub\n      dup2\n      add\n      swap1\n      tag_41\n      swap2\n      swap1\n      tag_13\n      jump\t// in\n    tag_41:\n      tag_42\n      jump\t// in\n    tag_40:\n      stop\n        /* \"Campaign2.sol\":1930:2199  function finalizeRequest(uint256 index) public restricted {... */\n    tag_14:\n        /* \"Campaign2.sol\":960:967  manager */\n      0x00\n      dup1\n      sload\n      swap1\n      0x0100\n      exp\n      swap1\n      div\n      0xffffffffffffffffffffffffffffffffffffffff\n      and\n        /* \"Campaign2.sol\":946:967  msg.sender == manager */\n      0xffffffffffffffffffffffffffffffffffffffff\n      and\n        /* \"Campaign2.sol\":946:956  msg.sender */\n      caller\n        /* \"Campaign2.sol\":946:967  msg.sender == manager */\n      0xffffffffffffffffffffffffffffffffffffffff\n      and\n      eq\n        /* \"Campaign2.sol\":938:968  require(msg.sender == manager) */\n      tag_44\n      jumpi\n      0x00\n      dup1\n      revert\n    tag_44:\n        /* \"Campaign2.sol\":1999:2016  Request storage r */\n      0x00\n        /* \"Campaign2.sol\":2019:2027  requests */\n      0x05\n        /* \"Campaign2.sol\":2019:2034  requests[index] */\n      0x00\n        /* \"Campaign2.sol\":2028:2033  index */\n      dup4\n        /* \"Campaign2.sol\":2019:2034  requests[index] */\n      dup2\n      mstore\n      0x20\n      add\n      swap1\n      dup2\n      mstore\n      0x20\n      add\n      0x00\n      keccak256\n        /* \"Campaign2.sol\":1999:2034  Request storage r = requests[index] */\n      swap1\n      pop\n        /* \"Campaign2.sol\":2054:2055  r */\n      dup1\n        /* \"Campaign2.sol\":2054:2064  r.complete */\n      0x02\n      add\n      0x14\n      swap1\n      sload\n      swap1\n      0x0100\n      exp\n      swap1\n      div\n      0xff\n      and\n        /* \"Campaign2.sol\":2053:2064  !r.complete */\n      iszero\n        /* \"Campaign2.sol\":2045:2065  require(!r.complete) */\n      tag_46\n      jumpi\n      0x00\n      dup1\n      revert\n    tag_46:\n        /* \"Campaign2.sol\":2118:2119  2 */\n      0x02\n        /* \"Campaign2.sol\":2103:2115  numApprovers */\n      sload(0x03)\n        /* \"Campaign2.sol\":2103:2119  numApprovers / 2 */\n      tag_47\n      swap2\n      swap1\n      tag_48\n      jump\t// in\n    tag_47:\n        /* \"Campaign2.sol\":2084:2085  r */\n      dup2\n        /* \"Campaign2.sol\":2084:2099  r.approvalCount */\n      0x03\n      add\n      sload\n        /* \"Campaign2.sol\":2084:2120  r.approvalCount > (numApprovers / 2) */\n      gt\n        /* \"Campaign2.sol\":2076:2121  require(r.approvalCount > (numApprovers / 2)) */\n      tag_49\n      jumpi\n      0x00\n      dup1\n      revert\n    tag_49:\n        /* \"Campaign2.sol\":2134:2135  r */\n      dup1\n        /* \"Campaign2.sol\":2134:2145  r.recipient */\n      0x02\n      add\n      0x00\n      swap1\n      sload\n      swap1\n      0x0100\n      exp\n      swap1\n      div\n      0xffffffffffffffffffffffffffffffffffffffff\n      and\n        /* \"Campaign2.sol\":2134:2154  r.recipient.transfer */\n      0xffffffffffffffffffffffffffffffffffffffff\n      and\n        /* \"Campaign2.sol\":2134:2163  r.recipient.transfer(r.value) */\n      0x08fc\n        /* \"Campaign2.sol\":2155:2156  r */\n      dup3\n        /* \"Campaign2.sol\":2155:2162  r.value */\n      0x01\n      add\n      sload\n        /* \"Campaign2.sol\":2134:2163  r.recipient.transfer(r.value) */\n      swap1\n      dup2\n      iszero\n      mul\n      swap1\n      mload(0x40)\n      0x00\n      mload(0x40)\n      dup1\n      dup4\n      sub\n      dup2\n      dup6\n      dup9\n      dup9\n      call\n      swap4\n      pop\n      pop\n      pop\n      pop\n      iszero\n      dup1\n      iszero\n      tag_51\n      jumpi\n      returndatasize\n      0x00\n      dup1\n      returndatacopy\n      revert(0x00, returndatasize)\n    tag_51:\n      pop\n        /* \"Campaign2.sol\":2187:2191  true */\n      0x01\n        /* \"Campaign2.sol\":2174:2175  r */\n      dup2\n        /* \"Campaign2.sol\":2174:2184  r.complete */\n      0x02\n      add\n      0x14\n        /* \"Campaign2.sol\":2174:2191  r.complete = true */\n      0x0100\n      exp\n      dup2\n      sload\n      dup2\n      0xff\n      mul\n      not\n      and\n      swap1\n      dup4\n      iszero\n      iszero\n      mul\n      or\n      swap1\n      sstore\n      pop\n        /* \"Campaign2.sol\":1988:2199  {... */\n      pop\n        /* \"Campaign2.sol\":1930:2199  function finalizeRequest(uint256 index) public restricted {... */\n      pop\n      jump\t// out\n        /* \"Campaign2.sol\":716:757  mapping(address => bool) public approvers */\n    tag_19:\n      mstore(0x20, 0x01)\n      dup1\n      0x00\n      mstore\n      keccak256(0x00, 0x40)\n      0x00\n      swap2\n      pop\n      sload\n      swap1\n      0x0100\n      exp\n      swap1\n      div\n      0xff\n      and\n      dup2\n      jump\t// out\n        /* \"Campaign2.sol\":687:709  address public manager */\n    tag_24:\n      0x00\n      dup1\n      sload\n      swap1\n      0x0100\n      exp\n      swap1\n      div\n      0xffffffffffffffffffffffffffffffffffffffff\n      and\n      dup2\n      jump\t// out\n        /* \"Campaign2.sol\":1295:1658  function createRequest(... */\n    tag_31:\n        /* \"Campaign2.sol\":960:967  manager */\n      0x00\n      dup1\n      sload\n      swap1\n      0x0100\n      exp\n      swap1\n      div\n      0xffffffffffffffffffffffffffffffffffffffff\n      and\n        /* \"Campaign2.sol\":946:967  msg.sender == manager */\n      0xffffffffffffffffffffffffffffffffffffffff\n      and\n        /* \"Campaign2.sol\":946:956  msg.sender */\n      caller\n        /* \"Campaign2.sol\":946:967  msg.sender == manager */\n      0xffffffffffffffffffffffffffffffffffffffff\n      and\n      eq\n        /* \"Campaign2.sol\":938:968  require(msg.sender == manager) */\n      tag_53\n      jumpi\n      0x00\n      dup1\n      revert\n    tag_53:\n        /* \"Campaign2.sol\":1450:1467  Request storage r */\n      0x00\n        /* \"Campaign2.sol\":1470:1478  requests */\n      0x05\n        /* \"Campaign2.sol\":1470:1493  requests[numRequests++] */\n      0x00\n        /* \"Campaign2.sol\":1479:1490  numRequests */\n      0x04\n      0x00\n        /* \"Campaign2.sol\":1479:1492  numRequests++ */\n      dup2\n      sload\n      dup1\n      swap3\n      swap2\n      swap1\n      tag_55\n      swap1\n      tag_56\n      jump\t// in\n    tag_55:\n      swap2\n      swap1\n      pop\n      sstore\n        /* \"Campaign2.sol\":1470:1493  requests[numRequests++] */\n      dup2\n      mstore\n      0x20\n      add\n      swap1\n      dup2\n      mstore\n      0x20\n      add\n      0x00\n      keccak256\n        /* \"Campaign2.sol\":1450:1493  Request storage r = requests[numRequests++] */\n      swap1\n      pop\n        /* \"Campaign2.sol\":1520:1531  description */\n      dup4\n        /* \"Campaign2.sol\":1504:1505  r */\n      dup2\n        /* \"Campaign2.sol\":1504:1517  r.description */\n      0x00\n      add\n        /* \"Campaign2.sol\":1504:1531  r.description = description */\n      swap1\n      dup1\n      mload\n      swap1\n      0x20\n      add\n      swap1\n      tag_57\n      swap3\n      swap2\n      swap1\n      tag_58\n      jump\t// in\n    tag_57:\n      pop\n        /* \"Campaign2.sol\":1552:1557  value */\n      dup3\n        /* \"Campaign2.sol\":1542:1543  r */\n      dup2\n        /* \"Campaign2.sol\":1542:1549  r.value */\n      0x01\n      add\n        /* \"Campaign2.sol\":1542:1557  r.value = value */\n      dup2\n      swap1\n      sstore\n      pop\n        /* \"Campaign2.sol\":1582:1591  recipient */\n      dup2\n        /* \"Campaign2.sol\":1568:1569  r */\n      dup2\n        /* \"Campaign2.sol\":1568:1579  r.recipient */\n      0x02\n      add\n      0x00\n        /* \"Campaign2.sol\":1568:1591  r.recipient = recipient */\n      0x0100\n      exp\n      dup2\n      sload\n      dup2\n      0xffffffffffffffffffffffffffffffffffffffff\n      mul\n      not\n      and\n      swap1\n      dup4\n      0xffffffffffffffffffffffffffffffffffffffff\n      and\n      mul\n      or\n      swap1\n      sstore\n      pop\n        /* \"Campaign2.sol\":1615:1620  false */\n      0x00\n        /* \"Campaign2.sol\":1602:1603  r */\n      dup2\n        /* \"Campaign2.sol\":1602:1612  r.complete */\n      0x02\n      add\n      0x14\n        /* \"Campaign2.sol\":1602:1620  r.complete = false */\n      0x0100\n      exp\n      dup2\n      sload\n      dup2\n      0xff\n      mul\n      not\n      and\n      swap1\n      dup4\n      iszero\n      iszero\n      mul\n      or\n      swap1\n      sstore\n      pop\n        /* \"Campaign2.sol\":1649:1650  0 */\n      0x00\n        /* \"Campaign2.sol\":1631:1632  r */\n      dup2\n        /* \"Campaign2.sol\":1631:1646  r.approvalCount */\n      0x03\n      add\n        /* \"Campaign2.sol\":1631:1650  r.approvalCount = 0 */\n      dup2\n      swap1\n      sstore\n      pop\n        /* \"Campaign2.sol\":1439:1658  {... */\n      pop\n        /* \"Campaign2.sol\":1295:1658  function createRequest(... */\n      pop\n      pop\n      pop\n      jump\t// out\n        /* \"Campaign2.sol\":764:798  uint256 public minimumContribution */\n    tag_34:\n      sload(0x02)\n      dup2\n      jump\t// out\n        /* \"Campaign2.sol\":1126:1287  function contribute() public payable {... */\n    tag_38:\n        /* \"Campaign2.sol\":1195:1214  minimumContribution */\n      sload(0x02)\n        /* \"Campaign2.sol\":1182:1191  msg.value */\n      callvalue\n        /* \"Campaign2.sol\":1182:1214  msg.value >= minimumContribution */\n      lt\n      iszero\n        /* \"Campaign2.sol\":1174:1215  require(msg.value >= minimumContribution) */\n      tag_60\n      jumpi\n      0x00\n      dup1\n      revert\n    tag_60:\n        /* \"Campaign2.sol\":1250:1254  true */\n      0x01\n        /* \"Campaign2.sol\":1226:1235  approvers */\n      dup1\n        /* \"Campaign2.sol\":1226:1247  approvers[msg.sender] */\n      0x00\n        /* \"Campaign2.sol\":1236:1246  msg.sender */\n      caller\n        /* \"Campaign2.sol\":1226:1247  approvers[msg.sender] */\n      0xffffffffffffffffffffffffffffffffffffffff\n      and\n      0xffffffffffffffffffffffffffffffffffffffff\n      and\n      dup2\n      mstore\n      0x20\n      add\n      swap1\n      dup2\n      mstore\n      0x20\n      add\n      0x00\n      keccak256\n      0x00\n        /* \"Campaign2.sol\":1226:1254  approvers[msg.sender] = true */\n      0x0100\n      exp\n      dup2\n      sload\n      dup2\n      0xff\n      mul\n      not\n      and\n      swap1\n      dup4\n      iszero\n      iszero\n      mul\n      or\n      swap1\n      sstore\n      pop\n        /* \"Campaign2.sol\":1265:1277  numApprovers */\n      0x03\n      0x00\n        /* \"Campaign2.sol\":1265:1279  numApprovers++ */\n      dup2\n      sload\n      dup1\n      swap3\n      swap2\n      swap1\n      tag_61\n      swap1\n      tag_56\n      jump\t// in\n    tag_61:\n      swap2\n      swap1\n      pop\n      sstore\n      pop\n        /* \"Campaign2.sol\":1126:1287  function contribute() public payable {... */\n      jump\t// out\n        /* \"Campaign2.sol\":1666:1922  function approveRequest(uint256 index) public {... */\n    tag_42:\n        /* \"Campaign2.sol\":1723:1740  Request storage r */\n      0x00\n        /* \"Campaign2.sol\":1743:1751  requests */\n      0x05\n        /* \"Campaign2.sol\":1743:1758  requests[index] */\n      0x00\n        /* \"Campaign2.sol\":1752:1757  index */\n      dup4\n        /* \"Campaign2.sol\":1743:1758  requests[index] */\n      dup2\n      mstore\n      0x20\n      add\n      swap1\n      dup2\n      mstore\n      0x20\n      add\n      0x00\n      keccak256\n        /* \"Campaign2.sol\":1723:1758  Request storage r = requests[index] */\n      swap1\n      pop\n        /* \"Campaign2.sol\":1777:1786  approvers */\n      0x01\n        /* \"Campaign2.sol\":1777:1798  approvers[msg.sender] */\n      0x00\n        /* \"Campaign2.sol\":1787:1797  msg.sender */\n      caller\n        /* \"Campaign2.sol\":1777:1798  approvers[msg.sender] */\n      0xffffffffffffffffffffffffffffffffffffffff\n      and\n      0xffffffffffffffffffffffffffffffffffffffff\n      and\n      dup2\n      mstore\n      0x20\n      add\n      swap1\n      dup2\n      mstore\n      0x20\n      add\n      0x00\n      keccak256\n      0x00\n      swap1\n      sload\n      swap1\n      0x0100\n      exp\n      swap1\n      div\n      0xff\n      and\n        /* \"Campaign2.sol\":1769:1799  require(approvers[msg.sender]) */\n      tag_63\n      jumpi\n      0x00\n      dup1\n      revert\n    tag_63:\n        /* \"Campaign2.sol\":1819:1820  r */\n      dup1\n        /* \"Campaign2.sol\":1819:1830  r.approvals */\n      0x04\n      add\n        /* \"Campaign2.sol\":1819:1842  r.approvals[msg.sender] */\n      0x00\n        /* \"Campaign2.sol\":1831:1841  msg.sender */\n      caller\n        /* \"Campaign2.sol\":1819:1842  r.approvals[msg.sender] */\n      0xffffffffffffffffffffffffffffffffffffffff\n      and\n      0xffffffffffffffffffffffffffffffffffffffff\n      and\n      dup2\n      mstore\n      0x20\n      add\n      swap1\n      dup2\n      mstore\n      0x20\n      add\n      0x00\n      keccak256\n      0x00\n      swap1\n      sload\n      swap1\n      0x0100\n      exp\n      swap1\n      div\n      0xff\n      and\n        /* \"Campaign2.sol\":1818:1842  !r.approvals[msg.sender] */\n      iszero\n        /* \"Campaign2.sol\":1810:1843  require(!r.approvals[msg.sender]) */\n      tag_64\n      jumpi\n      0x00\n      dup1\n      revert\n    tag_64:\n        /* \"Campaign2.sol\":1882:1886  true */\n      0x01\n        /* \"Campaign2.sol\":1856:1857  r */\n      dup2\n        /* \"Campaign2.sol\":1856:1867  r.approvals */\n      0x04\n      add\n        /* \"Campaign2.sol\":1856:1879  r.approvals[msg.sender] */\n      0x00\n        /* \"Campaign2.sol\":1868:1878  msg.sender */\n      caller\n        /* \"Campaign2.sol\":1856:1879  r.approvals[msg.sender] */\n      0xffffffffffffffffffffffffffffffffffffffff\n      and\n      0xffffffffffffffffffffffffffffffffffffffff\n      and\n      dup2\n      mstore\n      0x20\n      add\n      swap1\n      dup2\n      mstore\n      0x20\n      add\n      0x00\n      keccak256\n      0x00\n        /* \"Campaign2.sol\":1856:1886  r.approvals[msg.sender] = true */\n      0x0100\n      exp\n      dup2\n      sload\n      dup2\n      0xff\n      mul\n      not\n      and\n      swap1\n      dup4\n      iszero\n      iszero\n      mul\n      or\n      swap1\n      sstore\n      pop\n        /* \"Campaign2.sol\":1897:1898  r */\n      dup1\n        /* \"Campaign2.sol\":1897:1912  r.approvalCount */\n      0x03\n      add\n      0x00\n        /* \"Campaign2.sol\":1897:1914  r.approvalCount++ */\n      dup2\n      sload\n      dup1\n      swap3\n      swap2\n      swap1\n      tag_65\n      swap1\n      tag_56\n      jump\t// in\n    tag_65:\n      swap2\n      swap1\n      pop\n      sstore\n      pop\n        /* \"Campaign2.sol\":1712:1922  {... */\n      pop\n        /* \"Campaign2.sol\":1666:1922  function approveRequest(uint256 index) public {... */\n      pop\n      jump\t// out\n    tag_58:\n      dup3\n      dup1\n      sload\n      tag_66\n      swap1\n      tag_67\n      jump\t// in\n    tag_66:\n      swap1\n      0x00\n      mstore\n      keccak256(0x00, 0x20)\n      swap1\n      0x1f\n      add\n      0x20\n      swap1\n      div\n      dup2\n      add\n      swap3\n      dup3\n      tag_69\n      jumpi\n      0x00\n      dup6\n      sstore\n      jump(tag_68)\n    tag_69:\n      dup3\n      0x1f\n      lt\n      tag_70\n      jumpi\n      dup1\n      mload\n      not(0xff)\n      and\n      dup4\n      dup1\n      add\n      or\n      dup6\n      sstore\n      jump(tag_68)\n    tag_70:\n      dup3\n      dup1\n      add\n      0x01\n      add\n      dup6\n      sstore\n      dup3\n      iszero\n      tag_68\n      jumpi\n      swap2\n      dup3\n      add\n    tag_71:\n      dup3\n      dup2\n      gt\n      iszero\n      tag_72\n      jumpi\n      dup3\n      mload\n      dup3\n      sstore\n      swap2\n      0x20\n      add\n      swap2\n      swap1\n      0x01\n      add\n      swap1\n      jump(tag_71)\n    tag_72:\n    tag_68:\n      pop\n      swap1\n      pop\n      tag_73\n      swap2\n      swap1\n      tag_74\n      jump\t// in\n    tag_73:\n      pop\n      swap1\n      jump\t// out\n    tag_74:\n    tag_75:\n      dup1\n      dup3\n      gt\n      iszero\n      tag_76\n      jumpi\n      0x00\n      dup2\n      0x00\n      swap1\n      sstore\n      pop\n      0x01\n      add\n      jump(tag_75)\n    tag_76:\n      pop\n      swap1\n      jump\t// out\n        /* \"#utility.yul\":7:82   */\n    tag_77:\n        /* \"#utility.yul\":40:46   */\n      0x00\n        /* \"#utility.yul\":73:75   */\n      0x40\n        /* \"#utility.yul\":67:76   */\n      mload\n        /* \"#utility.yul\":57:76   */\n      swap1\n      pop\n        /* \"#utility.yul\":7:82   */\n      swap1\n      jump\t// out\n        /* \"#utility.yul\":88:205   */\n    tag_78:\n        /* \"#utility.yul\":197:198   */\n      0x00\n        /* \"#utility.yul\":194:195   */\n      dup1\n        /* \"#utility.yul\":187:199   */\n      revert\n        /* \"#utility.yul\":211:328   */\n    tag_79:\n        /* \"#utility.yul\":320:321   */\n      0x00\n        /* \"#utility.yul\":317:318   */\n      dup1\n        /* \"#utility.yul\":310:322   */\n      revert\n        /* \"#utility.yul\":334:411   */\n    tag_80:\n        /* \"#utility.yul\":371:378   */\n      0x00\n        /* \"#utility.yul\":400:405   */\n      dup2\n        /* \"#utility.yul\":389:405   */\n      swap1\n      pop\n        /* \"#utility.yul\":334:411   */\n      swap2\n      swap1\n      pop\n      jump\t// out\n        /* \"#utility.yul\":417:539   */\n    tag_81:\n        /* \"#utility.yul\":490:514   */\n      tag_113\n        /* \"#utility.yul\":508:513   */\n      dup2\n        /* \"#utility.yul\":490:514   */\n      tag_80\n      jump\t// in\n    tag_113:\n        /* \"#utility.yul\":483:488   */\n      dup2\n        /* \"#utility.yul\":480:515   */\n      eq\n        /* \"#utility.yul\":470:533   */\n      tag_114\n      jumpi\n        /* \"#utility.yul\":529:530   */\n      0x00\n        /* \"#utility.yul\":526:527   */\n      dup1\n        /* \"#utility.yul\":519:531   */\n      revert\n        /* \"#utility.yul\":470:533   */\n    tag_114:\n        /* \"#utility.yul\":417:539   */\n      pop\n      jump\t// out\n        /* \"#utility.yul\":545:684   */\n    tag_82:\n        /* \"#utility.yul\":591:596   */\n      0x00\n        /* \"#utility.yul\":629:635   */\n      dup2\n        /* \"#utility.yul\":616:636   */\n      calldataload\n        /* \"#utility.yul\":607:636   */\n      swap1\n      pop\n        /* \"#utility.yul\":645:678   */\n      tag_116\n        /* \"#utility.yul\":672:677   */\n      dup2\n        /* \"#utility.yul\":645:678   */\n      tag_81\n      jump\t// in\n    tag_116:\n        /* \"#utility.yul\":545:684   */\n      swap3\n      swap2\n      pop\n      pop\n      jump\t// out\n        /* \"#utility.yul\":690:1019   */\n    tag_13:\n        /* \"#utility.yul\":749:755   */\n      0x00\n        /* \"#utility.yul\":798:800   */\n      0x20\n        /* \"#utility.yul\":786:795   */\n      dup3\n        /* \"#utility.yul\":777:784   */\n      dup5\n        /* \"#utility.yul\":773:796   */\n      sub\n        /* \"#utility.yul\":769:801   */\n      slt\n        /* \"#utility.yul\":766:885   */\n      iszero\n      tag_118\n      jumpi\n        /* \"#utility.yul\":804:883   */\n      tag_119\n      tag_78\n      jump\t// in\n    tag_119:\n        /* \"#utility.yul\":766:885   */\n    tag_118:\n        /* \"#utility.yul\":924:925   */\n      0x00\n        /* \"#utility.yul\":949:1002   */\n      tag_120\n        /* \"#utility.yul\":994:1001   */\n      dup5\n        /* \"#utility.yul\":985:991   */\n      dup3\n        /* \"#utility.yul\":974:983   */\n      dup6\n        /* \"#utility.yul\":970:992   */\n      add\n        /* \"#utility.yul\":949:1002   */\n      tag_82\n      jump\t// in\n    tag_120:\n        /* \"#utility.yul\":939:1002   */\n      swap2\n      pop\n        /* \"#utility.yul\":895:1012   */\n      pop\n        /* \"#utility.yul\":690:1019   */\n      swap3\n      swap2\n      pop\n      pop\n      jump\t// out\n        /* \"#utility.yul\":1025:1151   */\n    tag_83:\n        /* \"#utility.yul\":1062:1069   */\n      0x00\n        /* \"#utility.yul\":1102:1144   */\n      0xffffffffffffffffffffffffffffffffffffffff\n        /* \"#utility.yul\":1095:1100   */\n      dup3\n        /* \"#utility.yul\":1091:1145   */\n      and\n        /* \"#utility.yul\":1080:1145   */\n      swap1\n      pop\n        /* \"#utility.yul\":1025:1151   */\n      swap2\n      swap1\n      pop\n      jump\t// out\n        /* \"#utility.yul\":1157:1253   */\n    tag_84:\n        /* \"#utility.yul\":1194:1201   */\n      0x00\n        /* \"#utility.yul\":1223:1247   */\n      tag_123\n        /* \"#utility.yul\":1241:1246   */\n      dup3\n        /* \"#utility.yul\":1223:1247   */\n      tag_83\n      jump\t// in\n    tag_123:\n        /* \"#utility.yul\":1212:1247   */\n      swap1\n      pop\n        /* \"#utility.yul\":1157:1253   */\n      swap2\n      swap1\n      pop\n      jump\t// out\n        /* \"#utility.yul\":1259:1381   */\n    tag_85:\n        /* \"#utility.yul\":1332:1356   */\n      tag_125\n        /* \"#utility.yul\":1350:1355   */\n      dup2\n        /* \"#utility.yul\":1332:1356   */\n      tag_84\n      jump\t// in\n    tag_125:\n        /* \"#utility.yul\":1325:1330   */\n      dup2\n        /* \"#utility.yul\":1322:1357   */\n      eq\n        /* \"#utility.yul\":1312:1375   */\n      tag_126\n      jumpi\n        /* \"#utility.yul\":1371:1372   */\n      0x00\n        /* \"#utility.yul\":1368:1369   */\n      dup1\n        /* \"#utility.yul\":1361:1373   */\n      revert\n        /* \"#utility.yul\":1312:1375   */\n    tag_126:\n        /* \"#utility.yul\":1259:1381   */\n      pop\n      jump\t// out\n        /* \"#utility.yul\":1387:1526   */\n    tag_86:\n        /* \"#utility.yul\":1433:1438   */\n      0x00\n        /* \"#utility.yul\":1471:1477   */\n      dup2\n        /* \"#utility.yul\":1458:1478   */\n      calldataload\n        /* \"#utility.yul\":1449:1478   */\n      swap1\n      pop\n        /* \"#utility.yul\":1487:1520   */\n      tag_128\n        /* \"#utility.yul\":1514:1519   */\n      dup2\n        /* \"#utility.yul\":1487:1520   */\n      tag_85\n      jump\t// in\n    tag_128:\n        /* \"#utility.yul\":1387:1526   */\n      swap3\n      swap2\n      pop\n      pop\n      jump\t// out\n        /* \"#utility.yul\":1532:1861   */\n    tag_18:\n        /* \"#utility.yul\":1591:1597   */\n      0x00\n        /* \"#utility.yul\":1640:1642   */\n      0x20\n        /* \"#utility.yul\":1628:1637   */\n      dup3\n        /* \"#utility.yul\":1619:1626   */\n      dup5\n        /* \"#utility.yul\":1615:1638   */\n      sub\n        /* \"#utility.yul\":1611:1643   */\n      slt\n        /* \"#utility.yul\":1608:1727   */\n      iszero\n      tag_130\n      jumpi\n        /* \"#utility.yul\":1646:1725   */\n      tag_131\n      tag_78\n      jump\t// in\n    tag_131:\n        /* \"#utility.yul\":1608:1727   */\n    tag_130:\n        /* \"#utility.yul\":1766:1767   */\n      0x00\n        /* \"#utility.yul\":1791:1844   */\n      tag_132\n        /* \"#utility.yul\":1836:1843   */\n      dup5\n        /* \"#utility.yul\":1827:1833   */\n      dup3\n        /* \"#utility.yul\":1816:1825   */\n      dup6\n        /* \"#utility.yul\":1812:1834   */\n      add\n        /* \"#utility.yul\":1791:1844   */\n      tag_86\n      jump\t// in\n    tag_132:\n        /* \"#utility.yul\":1781:1844   */\n      swap2\n      pop\n        /* \"#utility.yul\":1737:1854   */\n      pop\n        /* \"#utility.yul\":1532:1861   */\n      swap3\n      swap2\n      pop\n      pop\n      jump\t// out\n        /* \"#utility.yul\":1867:1957   */\n    tag_87:\n        /* \"#utility.yul\":1901:1908   */\n      0x00\n        /* \"#utility.yul\":1944:1949   */\n      dup2\n        /* \"#utility.yul\":1937:1950   */\n      iszero\n        /* \"#utility.yul\":1930:1951   */\n      iszero\n        /* \"#utility.yul\":1919:1951   */\n      swap1\n      pop\n        /* \"#utility.yul\":1867:1957   */\n      swap2\n      swap1\n      pop\n      jump\t// out\n        /* \"#utility.yul\":1963:2072   */\n    tag_88:\n        /* \"#utility.yul\":2044:2065   */\n      tag_135\n        /* \"#utility.yul\":2059:2064   */\n      dup2\n        /* \"#utility.yul\":2044:2065   */\n      tag_87\n      jump\t// in\n    tag_135:\n        /* \"#utility.yul\":2039:2042   */\n      dup3\n        /* \"#utility.yul\":2032:2066   */\n      mstore\n        /* \"#utility.yul\":1963:2072   */\n      pop\n      pop\n      jump\t// out\n        /* \"#utility.yul\":2078:2288   */\n    tag_21:\n        /* \"#utility.yul\":2165:2169   */\n      0x00\n        /* \"#utility.yul\":2203:2205   */\n      0x20\n        /* \"#utility.yul\":2192:2201   */\n      dup3\n        /* \"#utility.yul\":2188:2206   */\n      add\n        /* \"#utility.yul\":2180:2206   */\n      swap1\n      pop\n        /* \"#utility.yul\":2216:2281   */\n      tag_137\n        /* \"#utility.yul\":2278:2279   */\n      0x00\n        /* \"#utility.yul\":2267:2276   */\n      dup4\n        /* \"#utility.yul\":2263:2280   */\n      add\n        /* \"#utility.yul\":2254:2260   */\n      dup5\n        /* \"#utility.yul\":2216:2281   */\n      tag_88\n      jump\t// in\n    tag_137:\n        /* \"#utility.yul\":2078:2288   */\n      swap3\n      swap2\n      pop\n      pop\n      jump\t// out\n        /* \"#utility.yul\":2294:2412   */\n    tag_89:\n        /* \"#utility.yul\":2381:2405   */\n      tag_139\n        /* \"#utility.yul\":2399:2404   */\n      dup2\n        /* \"#utility.yul\":2381:2405   */\n      tag_84\n      jump\t// in\n    tag_139:\n        /* \"#utility.yul\":2376:2379   */\n      dup3\n        /* \"#utility.yul\":2369:2406   */\n      mstore\n        /* \"#utility.yul\":2294:2412   */\n      pop\n      pop\n      jump\t// out\n        /* \"#utility.yul\":2418:2640   */\n    tag_26:\n        /* \"#utility.yul\":2511:2515   */\n      0x00\n        /* \"#utility.yul\":2549:2551   */\n      0x20\n        /* \"#utility.yul\":2538:2547   */\n      dup3\n        /* \"#utility.yul\":2534:2552   */\n      add\n        /* \"#utility.yul\":2526:2552   */\n      swap1\n      pop\n        /* \"#utility.yul\":2562:2633   */\n      tag_141\n        /* \"#utility.yul\":2630:2631   */\n      0x00\n        /* \"#utility.yul\":2619:2628   */\n      dup4\n        /* \"#utility.yul\":2615:2632   */\n      add\n        /* \"#utility.yul\":2606:2612   */\n      dup5\n        /* \"#utility.yul\":2562:2633   */\n      tag_89\n      jump\t// in\n    tag_141:\n        /* \"#utility.yul\":2418:2640   */\n      swap3\n      swap2\n      pop\n      pop\n      jump\t// out\n        /* \"#utility.yul\":2646:2763   */\n    tag_90:\n        /* \"#utility.yul\":2755:2756   */\n      0x00\n        /* \"#utility.yul\":2752:2753   */\n      dup1\n        /* \"#utility.yul\":2745:2757   */\n      revert\n        /* \"#utility.yul\":2769:2886   */\n    tag_91:\n        /* \"#utility.yul\":2878:2879   */\n      0x00\n        /* \"#utility.yul\":2875:2876   */\n      dup1\n        /* \"#utility.yul\":2868:2880   */\n      revert\n        /* \"#utility.yul\":2892:2994   */\n    tag_92:\n        /* \"#utility.yul\":2933:2939   */\n      0x00\n        /* \"#utility.yul\":2984:2986   */\n      0x1f\n        /* \"#utility.yul\":2980:2987   */\n      not\n        /* \"#utility.yul\":2975:2977   */\n      0x1f\n        /* \"#utility.yul\":2968:2973   */\n      dup4\n        /* \"#utility.yul\":2964:2978   */\n      add\n        /* \"#utility.yul\":2960:2988   */\n      and\n        /* \"#utility.yul\":2950:2988   */\n      swap1\n      pop\n        /* \"#utility.yul\":2892:2994   */\n      swap2\n      swap1\n      pop\n      jump\t// out\n        /* \"#utility.yul\":3000:3180   */\n    tag_93:\n        /* \"#utility.yul\":3048:3125   */\n      0x4e487b7100000000000000000000000000000000000000000000000000000000\n        /* \"#utility.yul\":3045:3046   */\n      0x00\n        /* \"#utility.yul\":3038:3126   */\n      mstore\n        /* \"#utility.yul\":3145:3149   */\n      0x41\n        /* \"#utility.yul\":3142:3143   */\n      0x04\n        /* \"#utility.yul\":3135:3150   */\n      mstore\n        /* \"#utility.yul\":3169:3173   */\n      0x24\n        /* \"#utility.yul\":3166:3167   */\n      0x00\n        /* \"#utility.yul\":3159:3174   */\n      revert\n        /* \"#utility.yul\":3186:3467   */\n    tag_94:\n        /* \"#utility.yul\":3269:3296   */\n      tag_147\n        /* \"#utility.yul\":3291:3295   */\n      dup3\n        /* \"#utility.yul\":3269:3296   */\n      tag_92\n      jump\t// in\n    tag_147:\n        /* \"#utility.yul\":3261:3267   */\n      dup2\n        /* \"#utility.yul\":3257:3297   */\n      add\n        /* \"#utility.yul\":3399:3405   */\n      dup2\n        /* \"#utility.yul\":3387:3397   */\n      dup2\n        /* \"#utility.yul\":3384:3406   */\n      lt\n        /* \"#utility.yul\":3363:3381   */\n      0xffffffffffffffff\n        /* \"#utility.yul\":3351:3361   */\n      dup3\n        /* \"#utility.yul\":3348:3382   */\n      gt\n        /* \"#utility.yul\":3345:3407   */\n      or\n        /* \"#utility.yul\":3342:3430   */\n      iszero\n      tag_148\n      jumpi\n        /* \"#utility.yul\":3410:3428   */\n      tag_149\n      tag_93\n      jump\t// in\n    tag_149:\n        /* \"#utility.yul\":3342:3430   */\n    tag_148:\n        /* \"#utility.yul\":3450:3460   */\n      dup1\n        /* \"#utility.yul\":3446:3448   */\n      0x40\n        /* \"#utility.yul\":3439:3461   */\n      mstore\n        /* \"#utility.yul\":3229:3467   */\n      pop\n        /* \"#utility.yul\":3186:3467   */\n      pop\n      pop\n      jump\t// out\n        /* \"#utility.yul\":3473:3602   */\n    tag_95:\n        /* \"#utility.yul\":3507:3513   */\n      0x00\n        /* \"#utility.yul\":3534:3554   */\n      tag_151\n      tag_77\n      jump\t// in\n    tag_151:\n        /* \"#utility.yul\":3524:3554   */\n      swap1\n      pop\n        /* \"#utility.yul\":3563:3596   */\n      tag_152\n        /* \"#utility.yul\":3591:3595   */\n      dup3\n        /* \"#utility.yul\":3583:3589   */\n      dup3\n        /* \"#utility.yul\":3563:3596   */\n      tag_94\n      jump\t// in\n    tag_152:\n        /* \"#utility.yul\":3473:3602   */\n      swap2\n      swap1\n      pop\n      jump\t// out\n        /* \"#utility.yul\":3608:3916   */\n    tag_96:\n        /* \"#utility.yul\":3670:3674   */\n      0x00\n        /* \"#utility.yul\":3760:3778   */\n      0xffffffffffffffff\n        /* \"#utility.yul\":3752:3758   */\n      dup3\n        /* \"#utility.yul\":3749:3779   */\n      gt\n        /* \"#utility.yul\":3746:3802   */\n      iszero\n      tag_154\n      jumpi\n        /* \"#utility.yul\":3782:3800   */\n      tag_155\n      tag_93\n      jump\t// in\n    tag_155:\n        /* \"#utility.yul\":3746:3802   */\n    tag_154:\n        /* \"#utility.yul\":3820:3849   */\n      tag_156\n        /* \"#utility.yul\":3842:3848   */\n      dup3\n        /* \"#utility.yul\":3820:3849   */\n      tag_92\n      jump\t// in\n    tag_156:\n        /* \"#utility.yul\":3812:3849   */\n      swap1\n      pop\n        /* \"#utility.yul\":3904:3908   */\n      0x20\n        /* \"#utility.yul\":3898:3902   */\n      dup2\n        /* \"#utility.yul\":3894:3909   */\n      add\n        /* \"#utility.yul\":3886:3909   */\n      swap1\n      pop\n        /* \"#utility.yul\":3608:3916   */\n      swap2\n      swap1\n      pop\n      jump\t// out\n        /* \"#utility.yul\":3922:4076   */\n    tag_97:\n        /* \"#utility.yul\":4006:4012   */\n      dup3\n        /* \"#utility.yul\":4001:4004   */\n      dup2\n        /* \"#utility.yul\":3996:3999   */\n      dup4\n        /* \"#utility.yul\":3983:4013   */\n      calldatacopy\n        /* \"#utility.yul\":4068:4069   */\n      0x00\n        /* \"#utility.yul\":4059:4065   */\n      dup4\n        /* \"#utility.yul\":4054:4057   */\n      dup4\n        /* \"#utility.yul\":4050:4066   */\n      add\n        /* \"#utility.yul\":4043:4070   */\n      mstore\n        /* \"#utility.yul\":3922:4076   */\n      pop\n      pop\n      pop\n      jump\t// out\n        /* \"#utility.yul\":4082:4494   */\n    tag_98:\n        /* \"#utility.yul\":4160:4165   */\n      0x00\n        /* \"#utility.yul\":4185:4251   */\n      tag_159\n        /* \"#utility.yul\":4201:4250   */\n      tag_160\n        /* \"#utility.yul\":4243:4249   */\n      dup5\n        /* \"#utility.yul\":4201:4250   */\n      tag_96\n      jump\t// in\n    tag_160:\n        /* \"#utility.yul\":4185:4251   */\n      tag_95\n      jump\t// in\n    tag_159:\n        /* \"#utility.yul\":4176:4251   */\n      swap1\n      pop\n        /* \"#utility.yul\":4274:4280   */\n      dup3\n        /* \"#utility.yul\":4267:4272   */\n      dup2\n        /* \"#utility.yul\":4260:4281   */\n      mstore\n        /* \"#utility.yul\":4312:4316   */\n      0x20\n        /* \"#utility.yul\":4305:4310   */\n      dup2\n        /* \"#utility.yul\":4301:4317   */\n      add\n        /* \"#utility.yul\":4350:4353   */\n      dup5\n        /* \"#utility.yul\":4341:4347   */\n      dup5\n        /* \"#utility.yul\":4336:4339   */\n      dup5\n        /* \"#utility.yul\":4332:4348   */\n      add\n        /* \"#utility.yul\":4329:4354   */\n      gt\n        /* \"#utility.yul\":4326:4438   */\n      iszero\n      tag_161\n      jumpi\n        /* \"#utility.yul\":4357:4436   */\n      tag_162\n      tag_91\n      jump\t// in\n    tag_162:\n        /* \"#utility.yul\":4326:4438   */\n    tag_161:\n        /* \"#utility.yul\":4447:4488   */\n      tag_163\n        /* \"#utility.yul\":4481:4487   */\n      dup5\n        /* \"#utility.yul\":4476:4479   */\n      dup3\n        /* \"#utility.yul\":4471:4474   */\n      dup6\n        /* \"#utility.yul\":4447:4488   */\n      tag_97\n      jump\t// in\n    tag_163:\n        /* \"#utility.yul\":4166:4494   */\n      pop\n        /* \"#utility.yul\":4082:4494   */\n      swap4\n      swap3\n      pop\n      pop\n      pop\n      jump\t// out\n        /* \"#utility.yul\":4514:4854   */\n    tag_99:\n        /* \"#utility.yul\":4570:4575   */\n      0x00\n        /* \"#utility.yul\":4619:4622   */\n      dup3\n        /* \"#utility.yul\":4612:4616   */\n      0x1f\n        /* \"#utility.yul\":4604:4610   */\n      dup4\n        /* \"#utility.yul\":4600:4617   */\n      add\n        /* \"#utility.yul\":4596:4623   */\n      slt\n        /* \"#utility.yul\":4586:4708   */\n      tag_165\n      jumpi\n        /* \"#utility.yul\":4627:4706   */\n      tag_166\n      tag_90\n      jump\t// in\n    tag_166:\n        /* \"#utility.yul\":4586:4708   */\n    tag_165:\n        /* \"#utility.yul\":4744:4750   */\n      dup2\n        /* \"#utility.yul\":4731:4751   */\n      calldataload\n        /* \"#utility.yul\":4769:4848   */\n      tag_167\n        /* \"#utility.yul\":4844:4847   */\n      dup5\n        /* \"#utility.yul\":4836:4842   */\n      dup3\n        /* \"#utility.yul\":4829:4833   */\n      0x20\n        /* \"#utility.yul\":4821:4827   */\n      dup7\n        /* \"#utility.yul\":4817:4834   */\n      add\n        /* \"#utility.yul\":4769:4848   */\n      tag_98\n      jump\t// in\n    tag_167:\n        /* \"#utility.yul\":4760:4848   */\n      swap2\n      pop\n        /* \"#utility.yul\":4576:4854   */\n      pop\n        /* \"#utility.yul\":4514:4854   */\n      swap3\n      swap2\n      pop\n      pop\n      jump\t// out\n        /* \"#utility.yul\":4860:4964   */\n    tag_100:\n        /* \"#utility.yul\":4905:4912   */\n      0x00\n        /* \"#utility.yul\":4934:4958   */\n      tag_169\n        /* \"#utility.yul\":4952:4957   */\n      dup3\n        /* \"#utility.yul\":4934:4958   */\n      tag_83\n      jump\t// in\n    tag_169:\n        /* \"#utility.yul\":4923:4958   */\n      swap1\n      pop\n        /* \"#utility.yul\":4860:4964   */\n      swap2\n      swap1\n      pop\n      jump\t// out\n        /* \"#utility.yul\":4970:5108   */\n    tag_101:\n        /* \"#utility.yul\":5051:5083   */\n      tag_171\n        /* \"#utility.yul\":5077:5082   */\n      dup2\n        /* \"#utility.yul\":5051:5083   */\n      tag_100\n      jump\t// in\n    tag_171:\n        /* \"#utility.yul\":5044:5049   */\n      dup2\n        /* \"#utility.yul\":5041:5084   */\n      eq\n        /* \"#utility.yul\":5031:5102   */\n      tag_172\n      jumpi\n        /* \"#utility.yul\":5098:5099   */\n      0x00\n        /* \"#utility.yul\":5095:5096   */\n      dup1\n        /* \"#utility.yul\":5088:5100   */\n      revert\n        /* \"#utility.yul\":5031:5102   */\n    tag_172:\n        /* \"#utility.yul\":4970:5108   */\n      pop\n      jump\t// out\n        /* \"#utility.yul\":5114:5269   */\n    tag_102:\n        /* \"#utility.yul\":5168:5173   */\n      0x00\n        /* \"#utility.yul\":5206:5212   */\n      dup2\n        /* \"#utility.yul\":5193:5213   */\n      calldataload\n        /* \"#utility.yul\":5184:5213   */\n      swap1\n      pop\n        /* \"#utility.yul\":5222:5263   */\n      tag_174\n        /* \"#utility.yul\":5257:5262   */\n      dup2\n        /* \"#utility.yul\":5222:5263   */\n      tag_101\n      jump\t// in\n    tag_174:\n        /* \"#utility.yul\":5114:5269   */\n      swap3\n      swap2\n      pop\n      pop\n      jump\t// out\n        /* \"#utility.yul\":5275:6090   */\n    tag_30:\n        /* \"#utility.yul\":5370:5376   */\n      0x00\n        /* \"#utility.yul\":5378:5384   */\n      dup1\n        /* \"#utility.yul\":5386:5392   */\n      0x00\n        /* \"#utility.yul\":5435:5437   */\n      0x60\n        /* \"#utility.yul\":5423:5432   */\n      dup5\n        /* \"#utility.yul\":5414:5421   */\n      dup7\n        /* \"#utility.yul\":5410:5433   */\n      sub\n        /* \"#utility.yul\":5406:5438   */\n      slt\n        /* \"#utility.yul\":5403:5522   */\n      iszero\n      tag_176\n      jumpi\n        /* \"#utility.yul\":5441:5520   */\n      tag_177\n      tag_78\n      jump\t// in\n    tag_177:\n        /* \"#utility.yul\":5403:5522   */\n    tag_176:\n        /* \"#utility.yul\":5589:5590   */\n      0x00\n        /* \"#utility.yul\":5578:5587   */\n      dup5\n        /* \"#utility.yul\":5574:5591   */\n      add\n        /* \"#utility.yul\":5561:5592   */\n      calldataload\n        /* \"#utility.yul\":5619:5637   */\n      0xffffffffffffffff\n        /* \"#utility.yul\":5611:5617   */\n      dup2\n        /* \"#utility.yul\":5608:5638   */\n      gt\n        /* \"#utility.yul\":5605:5722   */\n      iszero\n      tag_178\n      jumpi\n        /* \"#utility.yul\":5641:5720   */\n      tag_179\n      tag_79\n      jump\t// in\n    tag_179:\n        /* \"#utility.yul\":5605:5722   */\n    tag_178:\n        /* \"#utility.yul\":5746:5809   */\n      tag_180\n        /* \"#utility.yul\":5801:5808   */\n      dup7\n        /* \"#utility.yul\":5792:5798   */\n      dup3\n        /* \"#utility.yul\":5781:5790   */\n      dup8\n        /* \"#utility.yul\":5777:5799   */\n      add\n        /* \"#utility.yul\":5746:5809   */\n      tag_99\n      jump\t// in\n    tag_180:\n        /* \"#utility.yul\":5736:5809   */\n      swap4\n      pop\n        /* \"#utility.yul\":5532:5819   */\n      pop\n        /* \"#utility.yul\":5858:5860   */\n      0x20\n        /* \"#utility.yul\":5884:5937   */\n      tag_181\n        /* \"#utility.yul\":5929:5936   */\n      dup7\n        /* \"#utility.yul\":5920:5926   */\n      dup3\n        /* \"#utility.yul\":5909:5918   */\n      dup8\n        /* \"#utility.yul\":5905:5927   */\n      add\n        /* \"#utility.yul\":5884:5937   */\n      tag_82\n      jump\t// in\n    tag_181:\n        /* \"#utility.yul\":5874:5937   */\n      swap3\n      pop\n        /* \"#utility.yul\":5829:5947   */\n      pop\n        /* \"#utility.yul\":5986:5988   */\n      0x40\n        /* \"#utility.yul\":6012:6073   */\n      tag_182\n        /* \"#utility.yul\":6065:6072   */\n      dup7\n        /* \"#utility.yul\":6056:6062   */\n      dup3\n        /* \"#utility.yul\":6045:6054   */\n      dup8\n        /* \"#utility.yul\":6041:6063   */\n      add\n        /* \"#utility.yul\":6012:6073   */\n      tag_102\n      jump\t// in\n    tag_182:\n        /* \"#utility.yul\":6002:6073   */\n      swap2\n      pop\n        /* \"#utility.yul\":5957:6083   */\n      pop\n        /* \"#utility.yul\":5275:6090   */\n      swap3\n      pop\n      swap3\n      pop\n      swap3\n      jump\t// out\n        /* \"#utility.yul\":6096:6214   */\n    tag_103:\n        /* \"#utility.yul\":6183:6207   */\n      tag_184\n        /* \"#utility.yul\":6201:6206   */\n      dup2\n        /* \"#utility.yul\":6183:6207   */\n      tag_80\n      jump\t// in\n    tag_184:\n        /* \"#utility.yul\":6178:6181   */\n      dup3\n        /* \"#utility.yul\":6171:6208   */\n      mstore\n        /* \"#utility.yul\":6096:6214   */\n      pop\n      pop\n      jump\t// out\n        /* \"#utility.yul\":6220:6442   */\n    tag_36:\n        /* \"#utility.yul\":6313:6317   */\n      0x00\n        /* \"#utility.yul\":6351:6353   */\n      0x20\n        /* \"#utility.yul\":6340:6349   */\n      dup3\n        /* \"#utility.yul\":6336:6354   */\n      add\n        /* \"#utility.yul\":6328:6354   */\n      swap1\n      pop\n        /* \"#utility.yul\":6364:6435   */\n      tag_186\n        /* \"#utility.yul\":6432:6433   */\n      0x00\n        /* \"#utility.yul\":6421:6430   */\n      dup4\n        /* \"#utility.yul\":6417:6434   */\n      add\n        /* \"#utility.yul\":6408:6414   */\n      dup5\n        /* \"#utility.yul\":6364:6435   */\n      tag_103\n      jump\t// in\n    tag_186:\n        /* \"#utility.yul\":6220:6442   */\n      swap3\n      swap2\n      pop\n      pop\n      jump\t// out\n        /* \"#utility.yul\":6448:6628   */\n    tag_104:\n        /* \"#utility.yul\":6496:6573   */\n      0x4e487b7100000000000000000000000000000000000000000000000000000000\n        /* \"#utility.yul\":6493:6494   */\n      0x00\n        /* \"#utility.yul\":6486:6574   */\n      mstore\n        /* \"#utility.yul\":6593:6597   */\n      0x12\n        /* \"#utility.yul\":6590:6591   */\n      0x04\n        /* \"#utility.yul\":6583:6598   */\n      mstore\n        /* \"#utility.yul\":6617:6621   */\n      0x24\n        /* \"#utility.yul\":6614:6615   */\n      0x00\n        /* \"#utility.yul\":6607:6622   */\n      revert\n        /* \"#utility.yul\":6634:6814   */\n    tag_105:\n        /* \"#utility.yul\":6682:6759   */\n      0x4e487b7100000000000000000000000000000000000000000000000000000000\n        /* \"#utility.yul\":6679:6680   */\n      0x00\n        /* \"#utility.yul\":6672:6760   */\n      mstore\n        /* \"#utility.yul\":6779:6783   */\n      0x11\n        /* \"#utility.yul\":6776:6777   */\n      0x04\n        /* \"#utility.yul\":6769:6784   */\n      mstore\n        /* \"#utility.yul\":6803:6807   */\n      0x24\n        /* \"#utility.yul\":6800:6801   */\n      0x00\n        /* \"#utility.yul\":6793:6808   */\n      revert\n        /* \"#utility.yul\":6820:7005   */\n    tag_48:\n        /* \"#utility.yul\":6860:6861   */\n      0x00\n        /* \"#utility.yul\":6877:6897   */\n      tag_190\n        /* \"#utility.yul\":6895:6896   */\n      dup3\n        /* \"#utility.yul\":6877:6897   */\n      tag_80\n      jump\t// in\n    tag_190:\n        /* \"#utility.yul\":6872:6897   */\n      swap2\n      pop\n        /* \"#utility.yul\":6911:6931   */\n      tag_191\n        /* \"#utility.yul\":6929:6930   */\n      dup4\n        /* \"#utility.yul\":6911:6931   */\n      tag_80\n      jump\t// in\n    tag_191:\n        /* \"#utility.yul\":6906:6931   */\n      swap3\n      pop\n        /* \"#utility.yul\":6950:6951   */\n      dup3\n        /* \"#utility.yul\":6940:6975   */\n      tag_192\n      jumpi\n        /* \"#utility.yul\":6955:6973   */\n      tag_193\n      tag_104\n      jump\t// in\n    tag_193:\n        /* \"#utility.yul\":6940:6975   */\n    tag_192:\n        /* \"#utility.yul\":6997:6998   */\n      dup3\n        /* \"#utility.yul\":6994:6995   */\n      dup3\n        /* \"#utility.yul\":6990:6999   */\n      div\n        /* \"#utility.yul\":6985:6999   */\n      swap1\n      pop\n        /* \"#utility.yul\":6820:7005   */\n      swap3\n      swap2\n      pop\n      pop\n      jump\t// out\n        /* \"#utility.yul\":7011:7244   */\n    tag_56:\n        /* \"#utility.yul\":7050:7053   */\n      0x00\n        /* \"#utility.yul\":7073:7097   */\n      tag_195\n        /* \"#utility.yul\":7091:7096   */\n      dup3\n        /* \"#utility.yul\":7073:7097   */\n      tag_80\n      jump\t// in\n    tag_195:\n        /* \"#utility.yul\":7064:7097   */\n      swap2\n      pop\n        /* \"#utility.yul\":7119:7185   */\n      0xffffffffffffffffffffffffffffffffffffffffffffffffffffffffffffffff\n        /* \"#utility.yul\":7112:7117   */\n      dup3\n        /* \"#utility.yul\":7109:7186   */\n      eq\n        /* \"#utility.yul\":7106:7209   */\n      iszero\n      tag_196\n      jumpi\n        /* \"#utility.yul\":7189:7207   */\n      tag_197\n      tag_105\n      jump\t// in\n    tag_197:\n        /* \"#utility.yul\":7106:7209   */\n    tag_196:\n        /* \"#utility.yul\":7236:7237   */\n      0x01\n        /* \"#utility.yul\":7229:7234   */\n      dup3\n        /* \"#utility.yul\":7225:7238   */\n      add\n        /* \"#utility.yul\":7218:7238   */\n      swap1\n      pop\n        /* \"#utility.yul\":7011:7244   */\n      swap2\n      swap1\n      pop\n      jump\t// out\n        /* \"#utility.yul\":7250:7430   */\n    tag_106:\n        /* \"#utility.yul\":7298:7375   */\n      0x4e487b7100000000000000000000000000000000000000000000000000000000\n        /* \"#utility.yul\":7295:7296   */\n      0x00\n        /* \"#utility.yul\":7288:7376   */\n      mstore\n        /* \"#utility.yul\":7395:7399   */\n      0x22\n        /* \"#utility.yul\":7392:7393   */\n      0x04\n        /* \"#utility.yul\":7385:7400   */\n      mstore\n        /* \"#utility.yul\":7419:7423   */\n      0x24\n        /* \"#utility.yul\":7416:7417   */\n      0x00\n        /* \"#utility.yul\":7409:7424   */\n      revert\n        /* \"#utility.yul\":7436:7756   */\n    tag_67:\n        /* \"#utility.yul\":7480:7486   */\n      0x00\n        /* \"#utility.yul\":7517:7518   */\n      0x02\n        /* \"#utility.yul\":7511:7515   */\n      dup3\n        /* \"#utility.yul\":7507:7519   */\n      div\n        /* \"#utility.yul\":7497:7519   */\n      swap1\n      pop\n        /* \"#utility.yul\":7564:7565   */\n      0x01\n        /* \"#utility.yul\":7558:7562   */\n      dup3\n        /* \"#utility.yul\":7554:7566   */\n      and\n        /* \"#utility.yul\":7585:7603   */\n      dup1\n        /* \"#utility.yul\":7575:7656   */\n      tag_200\n      jumpi\n        /* \"#utility.yul\":7641:7645   */\n      0x7f\n        /* \"#utility.yul\":7633:7639   */\n      dup3\n        /* \"#utility.yul\":7629:7646   */\n      and\n        /* \"#utility.yul\":7619:7646   */\n      swap2\n      pop\n        /* \"#utility.yul\":7575:7656   */\n    tag_200:\n        /* \"#utility.yul\":7703:7705   */\n      0x20\n        /* \"#utility.yul\":7695:7701   */\n      dup3\n        /* \"#utility.yul\":7692:7706   */\n      lt\n        /* \"#utility.yul\":7672:7690   */\n      dup2\n        /* \"#utility.yul\":7669:7707   */\n      eq\n        /* \"#utility.yul\":7666:7750   */\n      iszero\n      tag_201\n      jumpi\n        /* \"#utility.yul\":7722:7740   */\n      tag_202\n      tag_106\n      jump\t// in\n    tag_202:\n        /* \"#utility.yul\":7666:7750   */\n    tag_201:\n        /* \"#utility.yul\":7487:7756   */\n      pop\n        /* \"#utility.yul\":7436:7756   */\n      swap2\n      swap1\n      pop\n      jump\t// out\n\n    auxdata: 0xa2646970667358221220596666cf69ba5f1c17a6a4eae67dc04506d74a02c9db0af39555656858804fc464736f6c634300080c0033\n}\n",
        "bytecode": {
            "linkReferences": {},
            "object": "60806040523480156200001157600080fd5b5060405162000cf838038062000cf883398181016040528101906200003791906200012b565b806000806101000a81548173ffffffffffffffffffffffffffffffffffffffff021916908373ffffffffffffffffffffffffffffffffffffffff16021790555081600281905550505062000172565b600080fd5b6000819050919050565b620000a0816200008b565b8114620000ac57600080fd5b50565b600081519050620000c08162000095565b92915050565b600073ffffffffffffffffffffffffffffffffffffffff82169050919050565b6000620000f382620000c6565b9050919050565b6200010581620000e6565b81146200011157600080fd5b50565b6000815190506200012581620000fa565b92915050565b6000806040838503121562000145576200014462000086565b5b60006200015585828601620000af565b9250506020620001688582860162000114565b9150509250929050565b610b7680620001826000396000f3fe6080604052600436106100705760003560e01c80638a9cfd551161004e5780638a9cfd5514610106578063937e09b11461012f578063d7bb99ba1461015a578063d7d1bbdb1461016457610070565b806303441006146100755780630a1443911461009e578063481c6a75146100db575b600080fd5b34801561008157600080fd5b5061009c600480360381019061009791906106d2565b61018d565b005b3480156100aa57600080fd5b506100c560048036038101906100c0919061075d565b6102c6565b6040516100d291906107a5565b60405180910390f35b3480156100e757600080fd5b506100f06102e6565b6040516100fd91906107cf565b60405180910390f35b34801561011257600080fd5b5061012d6004803603810190610128919061096e565b61030a565b005b34801561013b57600080fd5b50610144610421565b60405161015191906109ec565b60405180910390f35b610162610427565b005b34801561017057600080fd5b5061018b600480360381019061018691906106d2565b6104a7565b005b60008054906101000a900473ffffffffffffffffffffffffffffffffffffffff1673ffffffffffffffffffffffffffffffffffffffff163373ffffffffffffffffffffffffffffffffffffffff16146101e557600080fd5b60006005600083815260200190815260200160002090508060020160149054906101000a900460ff161561021857600080fd5b60026003546102279190610a65565b81600301541161023657600080fd5b8060020160009054906101000a900473ffffffffffffffffffffffffffffffffffffffff1673ffffffffffffffffffffffffffffffffffffffff166108fc82600101549081150290604051600060405180830381858888f193505050501580156102a4573d6000803e3d6000fd5b5060018160020160146101000a81548160ff0219169083151502179055505050565b60016020528060005260406000206000915054906101000a900460ff1681565b60008054906101000a900473ffffffffffffffffffffffffffffffffffffffff1681565b60008054906101000a900473ffffffffffffffffffffffffffffffffffffffff1673ffffffffffffffffffffffffffffffffffffffff163373ffffffffffffffffffffffffffffffffffffffff161461036257600080fd5b6000600560006004600081548092919061037b90610a96565b9190505581526020019081526020016000209050838160000190805190602001906103a79291906105e5565b50828160010181905550818160020160006101000a81548173ffffffffffffffffffffffffffffffffffffffff021916908373ffffffffffffffffffffffffffffffffffffffff16021790555060008160020160146101000a81548160ff0219169083151502179055506000816003018190555050505050565b60025481565b60025434101561043657600080fd5b60018060003373ffffffffffffffffffffffffffffffffffffffff1673ffffffffffffffffffffffffffffffffffffffff16815260200190815260200160002060006101000a81548160ff021916908315150217905550600360008154809291906104a090610a96565b9190505550565b6000600560008381526020019081526020016000209050600160003373ffffffffffffffffffffffffffffffffffffffff1673ffffffffffffffffffffffffffffffffffffffff16815260200190815260200160002060009054906101000a900460ff1661051457600080fd5b8060040160003373ffffffffffffffffffffffffffffffffffffffff1673ffffffffffffffffffffffffffffffffffffffff16815260200190815260200160002060009054906101000a900460ff161561056d57600080fd5b60018160040160003373ffffffffffffffffffffffffffffffffffffffff1673ffffffffffffffffffffffffffffffffffffffff16815260200190815260200160002060006101000a81548160ff0219169083151502179055508060030160008154809291906105dc90610a96565b91905055505050565b8280546105f190610b0e565b90600052602060002090601f016020900481019282610613576000855561065a565b82601f1061062c57805160ff191683800117855561065a565b8280016001018555821561065a579182015b8281111561065957825182559160200191906001019061063e565b5b509050610667919061066b565b5090565b5b8082111561068457600081600090555060010161066c565b5090565b6000604051905090565b600080fd5b600080fd5b6000819050919050565b6106af8161069c565b81146106ba57600080fd5b50565b6000813590506106cc816106a6565b92915050565b6000602082840312156106e8576106e7610692565b5b60006106f6848285016106bd565b91505092915050565b600073ffffffffffffffffffffffffffffffffffffffff82169050919050565b600061072a826106ff565b9050919050565b61073a8161071f565b811461074557600080fd5b50565b60008135905061075781610731565b92915050565b60006020828403121561077357610772610692565b5b600061078184828501610748565b91505092915050565b60008115159050919050565b61079f8161078a565b82525050565b60006020820190506107ba6000830184610796565b92915050565b6107c98161071f565b82525050565b60006020820190506107e460008301846107c0565b92915050565b600080fd5b600080fd5b6000601f19601f8301169050919050565b7f4e487b7100000000000000000000000000000000000000000000000000000000600052604160045260246000fd5b61083d826107f4565b810181811067ffffffffffffffff8211171561085c5761085b610805565b5b80604052505050565b600061086f610688565b905061087b8282610834565b919050565b600067ffffffffffffffff82111561089b5761089a610805565b5b6108a4826107f4565b9050602081019050919050565b82818337600083830152505050565b60006108d36108ce84610880565b610865565b9050828152602081018484840111156108ef576108ee6107ef565b5b6108fa8482856108b1565b509392505050565b600082601f830112610917576109166107ea565b5b81356109278482602086016108c0565b91505092915050565b600061093b826106ff565b9050919050565b61094b81610930565b811461095657600080fd5b50565b60008135905061096881610942565b92915050565b60008060006060848603121561098757610986610692565b5b600084013567ffffffffffffffff8111156109a5576109a4610697565b5b6109b186828701610902565b93505060206109c2868287016106bd565b92505060406109d386828701610959565b9150509250925092565b6109e68161069c565b82525050565b6000602082019050610a0160008301846109dd565b92915050565b7f4e487b7100000000000000000000000000000000000000000000000000000000600052601260045260246000fd5b7f4e487b7100000000000000000000000000000000000000000000000000000000600052601160045260246000fd5b6000610a708261069c565b9150610a7b8361069c565b925082610a8b57610a8a610a07565b5b828204905092915050565b6000610aa18261069c565b91507fffffffffffffffffffffffffffffffffffffffffffffffffffffffffffffffff821415610ad457610ad3610a36565b5b600182019050919050565b7f4e487b7100000000000000000000000000000000000000000000000000000000600052602260045260246000fd5b60006002820490506001821680610b2657607f821691505b60208210811415610b3a57610b39610adf565b5b5091905056fea2646970667358221220596666cf69ba5f1c17a6a4eae67dc04506d74a02c9db0af39555656858804fc464736f6c634300080c0033",
            "opcodes": "PUSH1 0x80 PUSH1 0x40 MSTORE CALLVALUE DUP1 ISZERO PUSH3 0x11 JUMPI PUSH1 0x0 DUP1 REVERT JUMPDEST POP PUSH1 0x40 MLOAD PUSH3 0xCF8 CODESIZE SUB DUP1 PUSH3 0xCF8 DUP4 CODECOPY DUP2 DUP2 ADD PUSH1 0x40 MSTORE DUP2 ADD SWAP1 PUSH3 0x37 SWAP2 SWAP1 PUSH3 0x12B JUMP JUMPDEST DUP1 PUSH1 0x0 DUP1 PUSH2 0x100 EXP DUP2 SLOAD DUP2 PUSH20 0xFFFFFFFFFFFFFFFFFFFFFFFFFFFFFFFFFFFFFFFF MUL NOT AND SWAP1 DUP4 PUSH20 0xFFFFFFFFFFFFFFFFFFFFFFFFFFFFFFFFFFFFFFFF AND MUL OR SWAP1 SSTORE POP DUP2 PUSH1 0x2 DUP2 SWAP1 SSTORE POP POP POP PUSH3 0x172 JUMP JUMPDEST PUSH1 0x0 DUP1 REVERT JUMPDEST PUSH1 0x0 DUP2 SWAP1 POP SWAP2 SWAP1 POP JUMP JUMPDEST PUSH3 0xA0 DUP2 PUSH3 0x8B JUMP JUMPDEST DUP2 EQ PUSH3 0xAC JUMPI PUSH1 0x0 DUP1 REVERT JUMPDEST POP JUMP JUMPDEST PUSH1 0x0 DUP2 MLOAD SWAP1 POP PUSH3 0xC0 DUP2 PUSH3 0x95 JUMP JUMPDEST SWAP3 SWAP2 POP POP JUMP JUMPDEST PUSH1 0x0 PUSH20 0xFFFFFFFFFFFFFFFFFFFFFFFFFFFFFFFFFFFFFFFF DUP3 AND SWAP1 POP SWAP2 SWAP1 POP JUMP JUMPDEST PUSH1 0x0 PUSH3 0xF3 DUP3 PUSH3 0xC6 JUMP JUMPDEST SWAP1 POP SWAP2 SWAP1 POP JUMP JUMPDEST PUSH3 0x105 DUP2 PUSH3 0xE6 JUMP JUMPDEST DUP2 EQ PUSH3 0x111 JUMPI PUSH1 0x0 DUP1 REVERT JUMPDEST POP JUMP JUMPDEST PUSH1 0x0 DUP2 MLOAD SWAP1 POP PUSH3 0x125 DUP2 PUSH3 0xFA JUMP JUMPDEST SWAP3 SWAP2 POP POP JUMP JUMPDEST PUSH1 0x0 DUP1 PUSH1 0x40 DUP4 DUP6 SUB SLT ISZERO PUSH3 0x145 JUMPI PUSH3 0x144 PUSH3 0x86 JUMP JUMPDEST JUMPDEST PUSH1 0x0 PUSH3 0x155 DUP6 DUP3 DUP7 ADD PUSH3 0xAF JUMP JUMPDEST SWAP3 POP POP PUSH1 0x20 PUSH3 0x168 DUP6 DUP3 DUP7 ADD PUSH3 0x114 JUMP JUMPDEST SWAP2 POP POP SWAP3 POP SWAP3 SWAP1 POP JUMP JUMPDEST PUSH2 0xB76 DUP1 PUSH3 0x182 PUSH1 0x0 CODECOPY PUSH1 0x0 RETURN INVALID PUSH1 0x80 PUSH1 0x40 MSTORE PUSH1 0x4 CALLDATASIZE LT PUSH2 0x70 JUMPI PUSH1 0x0 CALLDATALOAD PUSH1 0xE0 SHR DUP1 PUSH4 0x8A9CFD55 GT PUSH2 0x4E JUMPI DUP1 PUSH4 0x8A9CFD55 EQ PUSH2 0x106 JUMPI DUP1 PUSH4 0x937E09B1 EQ PUSH2 0x12F JUMPI DUP1 PUSH4 0xD7BB99BA EQ PUSH2 0x15A JUMPI DUP1 PUSH4 0xD7D1BBDB EQ PUSH2 0x164 JUMPI PUSH2 0x70 JUMP JUMPDEST DUP1 PUSH4 0x3441006 EQ PUSH2 0x75 JUMPI DUP1 PUSH4 0xA144391 EQ PUSH2 0x9E JUMPI DUP1 PUSH4 0x481C6A75 EQ PUSH2 0xDB JUMPI JUMPDEST PUSH1 0x0 DUP1 REVERT JUMPDEST CALLVALUE DUP1 ISZERO PUSH2 0x81 JUMPI PUSH1 0x0 DUP1 REVERT JUMPDEST POP PUSH2 0x9C PUSH1 0x4 DUP1 CALLDATASIZE SUB DUP2 ADD SWAP1 PUSH2 0x97 SWAP2 SWAP1 PUSH2 0x6D2 JUMP JUMPDEST PUSH2 0x18D JUMP JUMPDEST STOP JUMPDEST CALLVALUE DUP1 ISZERO PUSH2 0xAA JUMPI PUSH1 0x0 DUP1 REVERT JUMPDEST POP PUSH2 0xC5 PUSH1 0x4 DUP1 CALLDATASIZE SUB DUP2 ADD SWAP1 PUSH2 0xC0 SWAP2 SWAP1 PUSH2 0x75D JUMP JUMPDEST PUSH2 0x2C6 JUMP JUMPDEST PUSH1 0x40 MLOAD PUSH2 0xD2 SWAP2 SWAP1 PUSH2 0x7A5 JUMP JUMPDEST PUSH1 0x40 MLOAD DUP1 SWAP2 SUB SWAP1 RETURN JUMPDEST CALLVALUE DUP1 ISZERO PUSH2 0xE7 JUMPI PUSH1 0x0 DUP1 REVERT JUMPDEST POP PUSH2 0xF0 PUSH2 0x2E6 JUMP JUMPDEST PUSH1 0x40 MLOAD PUSH2 0xFD SWAP2 SWAP1 PUSH2 0x7CF JUMP JUMPDEST PUSH1 0x40 MLOAD DUP1 SWAP2 SUB SWAP1 RETURN JUMPDEST CALLVALUE DUP1 ISZERO PUSH2 0x112 JUMPI PUSH1 0x0 DUP1 REVERT JUMPDEST POP PUSH2 0x12D PUSH1 0x4 DUP1 CALLDATASIZE SUB DUP2 ADD SWAP1 PUSH2 0x128 SWAP2 SWAP1 PUSH2 0x96E JUMP JUMPDEST PUSH2 0x30A JUMP JUMPDEST STOP JUMPDEST CALLVALUE DUP1 ISZERO PUSH2 0x13B JUMPI PUSH1 0x0 DUP1 REVERT JUMPDEST POP PUSH2 0x144 PUSH2 0x421 JUMP JUMPDEST PUSH1 0x40 MLOAD PUSH2 0x151 SWAP2 SWAP1 PUSH2 0x9EC JUMP JUMPDEST PUSH1 0x40 MLOAD DUP1 SWAP2 SUB SWAP1 RETURN JUMPDEST PUSH2 0x162 PUSH2 0x427 JUMP JUMPDEST STOP JUMPDEST CALLVALUE DUP1 ISZERO PUSH2 0x170 JUMPI PUSH1 0x0 DUP1 REVERT JUMPDEST POP PUSH2 0x18B PUSH1 0x4 DUP1 CALLDATASIZE SUB DUP2 ADD SWAP1 PUSH2 0x186 SWAP2 SWAP1 PUSH2 0x6D2 JUMP JUMPDEST PUSH2 0x4A7 JUMP JUMPDEST STOP JUMPDEST PUSH1 0x0 DUP1 SLOAD SWAP1 PUSH2 0x100 EXP SWAP1 DIV PUSH20 0xFFFFFFFFFFFFFFFFFFFFFFFFFFFFFFFFFFFFFFFF AND PUSH20 0xFFFFFFFFFFFFFFFFFFFFFFFFFFFFFFFFFFFFFFFF AND CALLER PUSH20 0xFFFFFFFFFFFFFFFFFFFFFFFFFFFFFFFFFFFFFFFF AND EQ PUSH2 0x1E5 JUMPI PUSH1 0x0 DUP1 REVERT JUMPDEST PUSH1 0x0 PUSH1 0x5 PUSH1 0x0 DUP4 DUP2 MSTORE PUSH1 0x20 ADD SWAP1 DUP2 MSTORE PUSH1 0x20 ADD PUSH1 0x0 KECCAK256 SWAP1 POP DUP1 PUSH1 0x2 ADD PUSH1 0x14 SWAP1 SLOAD SWAP1 PUSH2 0x100 EXP SWAP1 DIV PUSH1 0xFF AND ISZERO PUSH2 0x218 JUMPI PUSH1 0x0 DUP1 REVERT JUMPDEST PUSH1 0x2 PUSH1 0x3 SLOAD PUSH2 0x227 SWAP2 SWAP1 PUSH2 0xA65 JUMP JUMPDEST DUP2 PUSH1 0x3 ADD SLOAD GT PUSH2 0x236 JUMPI PUSH1 0x0 DUP1 REVERT JUMPDEST DUP1 PUSH1 0x2 ADD PUSH1 0x0 SWAP1 SLOAD SWAP1 PUSH2 0x100 EXP SWAP1 DIV PUSH20 0xFFFFFFFFFFFFFFFFFFFFFFFFFFFFFFFFFFFFFFFF AND PUSH20 0xFFFFFFFFFFFFFFFFFFFFFFFFFFFFFFFFFFFFFFFF AND PUSH2 0x8FC DUP3 PUSH1 0x1 ADD SLOAD SWAP1 DUP2 ISZERO MUL SWAP1 PUSH1 0x40 MLOAD PUSH1 0x0 PUSH1 0x40 MLOAD DUP1 DUP4 SUB DUP2 DUP6 DUP9 DUP9 CALL SWAP4 POP POP POP POP ISZERO DUP1 ISZERO PUSH2 0x2A4 JUMPI RETURNDATASIZE PUSH1 0x0 DUP1 RETURNDATACOPY RETURNDATASIZE PUSH1 0x0 REVERT JUMPDEST POP PUSH1 0x1 DUP2 PUSH1 0x2 ADD PUSH1 0x14 PUSH2 0x100 EXP DUP2 SLOAD DUP2 PUSH1 0xFF MUL NOT AND SWAP1 DUP4 ISZERO ISZERO MUL OR SWAP1 SSTORE POP POP POP JUMP JUMPDEST PUSH1 0x1 PUSH1 0x20 MSTORE DUP1 PUSH1 0x0 MSTORE PUSH1 0x40 PUSH1 0x0 KECCAK256 PUSH1 0x0 SWAP2 POP SLOAD SWAP1 PUSH2 0x100 EXP SWAP1 DIV PUSH1 0xFF AND DUP2 JUMP JUMPDEST PUSH1 0x0 DUP1 SLOAD SWAP1 PUSH2 0x100 EXP SWAP1 DIV PUSH20 0xFFFFFFFFFFFFFFFFFFFFFFFFFFFFFFFFFFFFFFFF AND DUP2 JUMP JUMPDEST PUSH1 0x0 DUP1 SLOAD SWAP1 PUSH2 0x100 EXP SWAP1 DIV PUSH20 0xFFFFFFFFFFFFFFFFFFFFFFFFFFFFFFFFFFFFFFFF AND PUSH20 0xFFFFFFFFFFFFFFFFFFFFFFFFFFFFFFFFFFFFFFFF AND CALLER PUSH20 0xFFFFFFFFFFFFFFFFFFFFFFFFFFFFFFFFFFFFFFFF AND EQ PUSH2 0x362 JUMPI PUSH1 0x0 DUP1 REVERT JUMPDEST PUSH1 0x0 PUSH1 0x5 PUSH1 0x0 PUSH1 0x4 PUSH1 0x0 DUP2 SLOAD DUP1 SWAP3 SWAP2 SWAP1 PUSH2 0x37B SWAP1 PUSH2 0xA96 JUMP JUMPDEST SWAP2 SWAP1 POP SSTORE DUP2 MSTORE PUSH1 0x20 ADD SWAP1 DUP2 MSTORE PUSH1 0x20 ADD PUSH1 0x0 KECCAK256 SWAP1 POP DUP4 DUP2 PUSH1 0x0 ADD SWAP1 DUP1 MLOAD SWAP1 PUSH1 0x20 ADD SWAP1 PUSH2 0x3A7 SWAP3 SWAP2 SWAP1 PUSH2 0x5E5 JUMP JUMPDEST POP DUP3 DUP2 PUSH1 0x1 ADD DUP2 SWAP1 SSTORE POP DUP2 DUP2 PUSH1 0x2 ADD PUSH1 0x0 PUSH2 0x100 EXP DUP2 SLOAD DUP2 PUSH20 0xFFFFFFFFFFFFFFFFFFFFFFFFFFFFFFFFFFFFFFFF MUL NOT AND SWAP1 DUP4 PUSH20 0xFFFFFFFFFFFFFFFFFFFFFFFFFFFFFFFFFFFFFFFF AND MUL OR SWAP1 SSTORE POP PUSH1 0x0 DUP2 PUSH1 0x2 ADD PUSH1 0x14 PUSH2 0x100 EXP DUP2 SLOAD DUP2 PUSH1 0xFF MUL NOT AND SWAP1 DUP4 ISZERO ISZERO MUL OR SWAP1 SSTORE POP PUSH1 0x0 DUP2 PUSH1 0x3 ADD DUP2 SWAP1 SSTORE POP POP POP POP POP JUMP JUMPDEST PUSH1 0x2 SLOAD DUP2 JUMP JUMPDEST PUSH1 0x2 SLOAD CALLVALUE LT ISZERO PUSH2 0x436 JUMPI PUSH1 0x0 DUP1 REVERT JUMPDEST PUSH1 0x1 DUP1 PUSH1 0x0 CALLER PUSH20 0xFFFFFFFFFFFFFFFFFFFFFFFFFFFFFFFFFFFFFFFF AND PUSH20 0xFFFFFFFFFFFFFFFFFFFFFFFFFFFFFFFFFFFFFFFF AND DUP2 MSTORE PUSH1 0x20 ADD SWAP1 DUP2 MSTORE PUSH1 0x20 ADD PUSH1 0x0 KECCAK256 PUSH1 0x0 PUSH2 0x100 EXP DUP2 SLOAD DUP2 PUSH1 0xFF MUL NOT AND SWAP1 DUP4 ISZERO ISZERO MUL OR SWAP1 SSTORE POP PUSH1 0x3 PUSH1 0x0 DUP2 SLOAD DUP1 SWAP3 SWAP2 SWAP1 PUSH2 0x4A0 SWAP1 PUSH2 0xA96 JUMP JUMPDEST SWAP2 SWAP1 POP SSTORE POP JUMP JUMPDEST PUSH1 0x0 PUSH1 0x5 PUSH1 0x0 DUP4 DUP2 MSTORE PUSH1 0x20 ADD SWAP1 DUP2 MSTORE PUSH1 0x20 ADD PUSH1 0x0 KECCAK256 SWAP1 POP PUSH1 0x1 PUSH1 0x0 CALLER PUSH20 0xFFFFFFFFFFFFFFFFFFFFFFFFFFFFFFFFFFFFFFFF AND PUSH20 0xFFFFFFFFFFFFFFFFFFFFFFFFFFFFFFFFFFFFFFFF AND DUP2 MSTORE PUSH1 0x20 ADD SWAP1 DUP2 MSTORE PUSH1 0x20 ADD PUSH1 0x0 KECCAK256 PUSH1 0x0 SWAP1 SLOAD SWAP1 PUSH2 0x100 EXP SWAP1 DIV PUSH1 0xFF AND PUSH2 0x514 JUMPI PUSH1 0x0 DUP1 REVERT JUMPDEST DUP1 PUSH1 0x4 ADD PUSH1 0x0 CALLER PUSH20 0xFFFFFFFFFFFFFFFFFFFFFFFFFFFFFFFFFFFFFFFF AND PUSH20 0xFFFFFFFFFFFFFFFFFFFFFFFFFFFFFFFFFFFFFFFF AND DUP2 MSTORE PUSH1 0x20 ADD SWAP1 DUP2 MSTORE PUSH1 0x20 ADD PUSH1 0x0 KECCAK256 PUSH1 0x0 SWAP1 SLOAD SWAP1 PUSH2 0x100 EXP SWAP1 DIV PUSH1 0xFF AND ISZERO PUSH2 0x56D JUMPI PUSH1 0x0 DUP1 REVERT JUMPDEST PUSH1 0x1 DUP2 PUSH1 0x4 ADD PUSH1 0x0 CALLER PUSH20 0xFFFFFFFFFFFFFFFFFFFFFFFFFFFFFFFFFFFFFFFF AND PUSH20 0xFFFFFFFFFFFFFFFFFFFFFFFFFFFFFFFFFFFFFFFF AND DUP2 MSTORE PUSH1 0x20 ADD SWAP1 DUP2 MSTORE PUSH1 0x20 ADD PUSH1 0x0 KECCAK256 PUSH1 0x0 PUSH2 0x100 EXP DUP2 SLOAD DUP2 PUSH1 0xFF MUL NOT AND SWAP1 DUP4 ISZERO ISZERO MUL OR SWAP1 SSTORE POP DUP1 PUSH1 0x3 ADD PUSH1 0x0 DUP2 SLOAD DUP1 SWAP3 SWAP2 SWAP1 PUSH2 0x5DC SWAP1 PUSH2 0xA96 JUMP JUMPDEST SWAP2 SWAP1 POP SSTORE POP POP POP JUMP JUMPDEST DUP3 DUP1 SLOAD PUSH2 0x5F1 SWAP1 PUSH2 0xB0E JUMP JUMPDEST SWAP1 PUSH1 0x0 MSTORE PUSH1 0x20 PUSH1 0x0 KECCAK256 SWAP1 PUSH1 0x1F ADD PUSH1 0x20 SWAP1 DIV DUP2 ADD SWAP3 DUP3 PUSH2 0x613 JUMPI PUSH1 0x0 DUP6 SSTORE PUSH2 0x65A JUMP JUMPDEST DUP3 PUSH1 0x1F LT PUSH2 0x62C JUMPI DUP1 MLOAD PUSH1 0xFF NOT AND DUP4 DUP1 ADD OR DUP6 SSTORE PUSH2 0x65A JUMP JUMPDEST DUP3 DUP1 ADD PUSH1 0x1 ADD DUP6 SSTORE DUP3 ISZERO PUSH2 0x65A JUMPI SWAP2 DUP3 ADD JUMPDEST DUP3 DUP2 GT ISZERO PUSH2 0x659 JUMPI DUP3 MLOAD DUP3 SSTORE SWAP2 PUSH1 0x20 ADD SWAP2 SWAP1 PUSH1 0x1 ADD SWAP1 PUSH2 0x63E JUMP JUMPDEST JUMPDEST POP SWAP1 POP PUSH2 0x667 SWAP2 SWAP1 PUSH2 0x66B JUMP JUMPDEST POP SWAP1 JUMP JUMPDEST JUMPDEST DUP1 DUP3 GT ISZERO PUSH2 0x684 JUMPI PUSH1 0x0 DUP2 PUSH1 0x0 SWAP1 SSTORE POP PUSH1 0x1 ADD PUSH2 0x66C JUMP JUMPDEST POP SWAP1 JUMP JUMPDEST PUSH1 0x0 PUSH1 0x40 MLOAD SWAP1 POP SWAP1 JUMP JUMPDEST PUSH1 0x0 DUP1 REVERT JUMPDEST PUSH1 0x0 DUP1 REVERT JUMPDEST PUSH1 0x0 DUP2 SWAP1 POP SWAP2 SWAP1 POP JUMP JUMPDEST PUSH2 0x6AF DUP2 PUSH2 0x69C JUMP JUMPDEST DUP2 EQ PUSH2 0x6BA JUMPI PUSH1 0x0 DUP1 REVERT JUMPDEST POP JUMP JUMPDEST PUSH1 0x0 DUP2 CALLDATALOAD SWAP1 POP PUSH2 0x6CC DUP2 PUSH2 0x6A6 JUMP JUMPDEST SWAP3 SWAP2 POP POP JUMP JUMPDEST PUSH1 0x0 PUSH1 0x20 DUP3 DUP5 SUB SLT ISZERO PUSH2 0x6E8 JUMPI PUSH2 0x6E7 PUSH2 0x692 JUMP JUMPDEST JUMPDEST PUSH1 0x0 PUSH2 0x6F6 DUP5 DUP3 DUP6 ADD PUSH2 0x6BD JUMP JUMPDEST SWAP2 POP POP SWAP3 SWAP2 POP POP JUMP JUMPDEST PUSH1 0x0 PUSH20 0xFFFFFFFFFFFFFFFFFFFFFFFFFFFFFFFFFFFFFFFF DUP3 AND SWAP1 POP SWAP2 SWAP1 POP JUMP JUMPDEST PUSH1 0x0 PUSH2 0x72A DUP3 PUSH2 0x6FF JUMP JUMPDEST SWAP1 POP SWAP2 SWAP1 POP JUMP JUMPDEST PUSH2 0x73A DUP2 PUSH2 0x71F JUMP JUMPDEST DUP2 EQ PUSH2 0x745 JUMPI PUSH1 0x0 DUP1 REVERT JUMPDEST POP JUMP JUMPDEST PUSH1 0x0 DUP2 CALLDATALOAD SWAP1 POP PUSH2 0x757 DUP2 PUSH2 0x731 JUMP JUMPDEST SWAP3 SWAP2 POP POP JUMP JUMPDEST PUSH1 0x0 PUSH1 0x20 DUP3 DUP5 SUB SLT ISZERO PUSH2 0x773 JUMPI PUSH2 0x772 PUSH2 0x692 JUMP JUMPDEST JUMPDEST PUSH1 0x0 PUSH2 0x781 DUP5 DUP3 DUP6 ADD PUSH2 0x748 JUMP JUMPDEST SWAP2 POP POP SWAP3 SWAP2 POP POP JUMP JUMPDEST PUSH1 0x0 DUP2 ISZERO ISZERO SWAP1 POP SWAP2 SWAP1 POP JUMP JUMPDEST PUSH2 0x79F DUP2 PUSH2 0x78A JUMP JUMPDEST DUP3 MSTORE POP POP JUMP JUMPDEST PUSH1 0x0 PUSH1 0x20 DUP3 ADD SWAP1 POP PUSH2 0x7BA PUSH1 0x0 DUP4 ADD DUP5 PUSH2 0x796 JUMP JUMPDEST SWAP3 SWAP2 POP POP JUMP JUMPDEST PUSH2 0x7C9 DUP2 PUSH2 0x71F JUMP JUMPDEST DUP3 MSTORE POP POP JUMP JUMPDEST PUSH1 0x0 PUSH1 0x20 DUP3 ADD SWAP1 POP PUSH2 0x7E4 PUSH1 0x0 DUP4 ADD DUP5 PUSH2 0x7C0 JUMP JUMPDEST SWAP3 SWAP2 POP POP JUMP JUMPDEST PUSH1 0x0 DUP1 REVERT JUMPDEST PUSH1 0x0 DUP1 REVERT JUMPDEST PUSH1 0x0 PUSH1 0x1F NOT PUSH1 0x1F DUP4 ADD AND SWAP1 POP SWAP2 SWAP1 POP JUMP JUMPDEST PUSH32 0x4E487B7100000000000000000000000000000000000000000000000000000000 PUSH1 0x0 MSTORE PUSH1 0x41 PUSH1 0x4 MSTORE PUSH1 0x24 PUSH1 0x0 REVERT JUMPDEST PUSH2 0x83D DUP3 PUSH2 0x7F4 JUMP JUMPDEST DUP2 ADD DUP2 DUP2 LT PUSH8 0xFFFFFFFFFFFFFFFF DUP3 GT OR ISZERO PUSH2 0x85C JUMPI PUSH2 0x85B PUSH2 0x805 JUMP JUMPDEST JUMPDEST DUP1 PUSH1 0x40 MSTORE POP POP POP JUMP JUMPDEST PUSH1 0x0 PUSH2 0x86F PUSH2 0x688 JUMP JUMPDEST SWAP1 POP PUSH2 0x87B DUP3 DUP3 PUSH2 0x834 JUMP JUMPDEST SWAP2 SWAP1 POP JUMP JUMPDEST PUSH1 0x0 PUSH8 0xFFFFFFFFFFFFFFFF DUP3 GT ISZERO PUSH2 0x89B JUMPI PUSH2 0x89A PUSH2 0x805 JUMP JUMPDEST JUMPDEST PUSH2 0x8A4 DUP3 PUSH2 0x7F4 JUMP JUMPDEST SWAP1 POP PUSH1 0x20 DUP2 ADD SWAP1 POP SWAP2 SWAP1 POP JUMP JUMPDEST DUP3 DUP2 DUP4 CALLDATACOPY PUSH1 0x0 DUP4 DUP4 ADD MSTORE POP POP POP JUMP JUMPDEST PUSH1 0x0 PUSH2 0x8D3 PUSH2 0x8CE DUP5 PUSH2 0x880 JUMP JUMPDEST PUSH2 0x865 JUMP JUMPDEST SWAP1 POP DUP3 DUP2 MSTORE PUSH1 0x20 DUP2 ADD DUP5 DUP5 DUP5 ADD GT ISZERO PUSH2 0x8EF JUMPI PUSH2 0x8EE PUSH2 0x7EF JUMP JUMPDEST JUMPDEST PUSH2 0x8FA DUP5 DUP3 DUP6 PUSH2 0x8B1 JUMP JUMPDEST POP SWAP4 SWAP3 POP POP POP JUMP JUMPDEST PUSH1 0x0 DUP3 PUSH1 0x1F DUP4 ADD SLT PUSH2 0x917 JUMPI PUSH2 0x916 PUSH2 0x7EA JUMP JUMPDEST JUMPDEST DUP2 CALLDATALOAD PUSH2 0x927 DUP5 DUP3 PUSH1 0x20 DUP7 ADD PUSH2 0x8C0 JUMP JUMPDEST SWAP2 POP POP SWAP3 SWAP2 POP POP JUMP JUMPDEST PUSH1 0x0 PUSH2 0x93B DUP3 PUSH2 0x6FF JUMP JUMPDEST SWAP1 POP SWAP2 SWAP1 POP JUMP JUMPDEST PUSH2 0x94B DUP2 PUSH2 0x930 JUMP JUMPDEST DUP2 EQ PUSH2 0x956 JUMPI PUSH1 0x0 DUP1 REVERT JUMPDEST POP JUMP JUMPDEST PUSH1 0x0 DUP2 CALLDATALOAD SWAP1 POP PUSH2 0x968 DUP2 PUSH2 0x942 JUMP JUMPDEST SWAP3 SWAP2 POP POP JUMP JUMPDEST PUSH1 0x0 DUP1 PUSH1 0x0 PUSH1 0x60 DUP5 DUP7 SUB SLT ISZERO PUSH2 0x987 JUMPI PUSH2 0x986 PUSH2 0x692 JUMP JUMPDEST JUMPDEST PUSH1 0x0 DUP5 ADD CALLDATALOAD PUSH8 0xFFFFFFFFFFFFFFFF DUP2 GT ISZERO PUSH2 0x9A5 JUMPI PUSH2 0x9A4 PUSH2 0x697 JUMP JUMPDEST JUMPDEST PUSH2 0x9B1 DUP7 DUP3 DUP8 ADD PUSH2 0x902 JUMP JUMPDEST SWAP4 POP POP PUSH1 0x20 PUSH2 0x9C2 DUP7 DUP3 DUP8 ADD PUSH2 0x6BD JUMP JUMPDEST SWAP3 POP POP PUSH1 0x40 PUSH2 0x9D3 DUP7 DUP3 DUP8 ADD PUSH2 0x959 JUMP JUMPDEST SWAP2 POP POP SWAP3 POP SWAP3 POP SWAP3 JUMP JUMPDEST PUSH2 0x9E6 DUP2 PUSH2 0x69C JUMP JUMPDEST DUP3 MSTORE POP POP JUMP JUMPDEST PUSH1 0x0 PUSH1 0x20 DUP3 ADD SWAP1 POP PUSH2 0xA01 PUSH1 0x0 DUP4 ADD DUP5 PUSH2 0x9DD JUMP JUMPDEST SWAP3 SWAP2 POP POP JUMP JUMPDEST PUSH32 0x4E487B7100000000000000000000000000000000000000000000000000000000 PUSH1 0x0 MSTORE PUSH1 0x12 PUSH1 0x4 MSTORE PUSH1 0x24 PUSH1 0x0 REVERT JUMPDEST PUSH32 0x4E487B7100000000000000000000000000000000000000000000000000000000 PUSH1 0x0 MSTORE PUSH1 0x11 PUSH1 0x4 MSTORE PUSH1 0x24 PUSH1 0x0 REVERT JUMPDEST PUSH1 0x0 PUSH2 0xA70 DUP3 PUSH2 0x69C JUMP JUMPDEST SWAP2 POP PUSH2 0xA7B DUP4 PUSH2 0x69C JUMP JUMPDEST SWAP3 POP DUP3 PUSH2 0xA8B JUMPI PUSH2 0xA8A PUSH2 0xA07 JUMP JUMPDEST JUMPDEST DUP3 DUP3 DIV SWAP1 POP SWAP3 SWAP2 POP POP JUMP JUMPDEST PUSH1 0x0 PUSH2 0xAA1 DUP3 PUSH2 0x69C JUMP JUMPDEST SWAP2 POP PUSH32 0xFFFFFFFFFFFFFFFFFFFFFFFFFFFFFFFFFFFFFFFFFFFFFFFFFFFFFFFFFFFFFFFF DUP3 EQ ISZERO PUSH2 0xAD4 JUMPI PUSH2 0xAD3 PUSH2 0xA36 JUMP JUMPDEST JUMPDEST PUSH1 0x1 DUP3 ADD SWAP1 POP SWAP2 SWAP1 POP JUMP JUMPDEST PUSH32 0x4E487B7100000000000000000000000000000000000000000000000000000000 PUSH1 0x0 MSTORE PUSH1 0x22 PUSH1 0x4 MSTORE PUSH1 0x24 PUSH1 0x0 REVERT JUMPDEST PUSH1 0x0 PUSH1 0x2 DUP3 DIV SWAP1 POP PUSH1 0x1 DUP3 AND DUP1 PUSH2 0xB26 JUMPI PUSH1 0x7F DUP3 AND SWAP2 POP JUMPDEST PUSH1 0x20 DUP3 LT DUP2 EQ ISZERO PUSH2 0xB3A JUMPI PUSH2 0xB39 PUSH2 0xADF JUMP JUMPDEST JUMPDEST POP SWAP2 SWAP1 POP JUMP INVALID LOG2 PUSH5 0x6970667358 0x22 SLT KECCAK256 MSIZE PUSH7 0x66CF69BA5F1C17 0xA6 LOG4 0xEA 0xE6 PUSH30 0xC04506D74A02C9DB0AF39555656858804FC464736F6C634300080C003300 "
        },
        "gasEstimates": {
            "creation": {
                "codeDepositCost": "586800",
                "executionCost": "infinite",
                "totalCost": "infinite"
            },
            "external": {
                "approveRequest(uint256)": "infinite",
                "approvers(address)": "2868",
                "contribute()": "51005",
                "createRequest(string,uint256,address)": "infinite",
                "finalizeRequest(uint256)": "infinite",
                "manager()": "2556",
                "minimumContribution()": "2451"
            }
        },
        "methodIdentifiers": {
            "approveRequest(uint256)": "d7d1bbdb",
            "approvers(address)": "0a144391",
            "contribute()": "d7bb99ba",
            "createRequest(string,uint256,address)": "8a9cfd55",
            "finalizeRequest(uint256)": "03441006",
            "manager()": "481c6a75",
            "minimumContribution()": "937e09b1"
        }
    },
    "storageLayout": {
        "storage": [
            {
                "astId": 56,
                "contract": "Campaign2.sol:Campaign",
                "label": "manager",
                "offset": 0,
                "slot": "0",
                "type": "t_address"
            },
            {
                "astId": 60,
                "contract": "Campaign2.sol:Campaign",
                "label": "approvers",
                "offset": 0,
                "slot": "1",
                "type": "t_mapping(t_address,t_bool)"
            },
            {
                "astId": 62,
                "contract": "Campaign2.sol:Campaign",
                "label": "minimumContribution",
                "offset": 0,
                "slot": "2",
                "type": "t_uint256"
            },
            {
                "astId": 64,
                "contract": "Campaign2.sol:Campaign",
                "label": "numApprovers",
                "offset": 0,
                "slot": "3",
                "type": "t_uint256"
            },
            {
                "astId": 66,
                "contract": "Campaign2.sol:Campaign",
                "label": "numRequests",
                "offset": 0,
                "slot": "4",
                "type": "t_uint256"
            },
            {
                "astId": 71,
                "contract": "Campaign2.sol:Campaign",
                "label": "requests",
                "offset": 0,
                "slot": "5",
                "type": "t_mapping(t_uint256,t_struct(Request)54_storage)"
            }
        ],
        "types": {
            "t_address": {
                "encoding": "inplace",
                "label": "address",
                "numberOfBytes": "20"
            },
            "t_address_payable": {
                "encoding": "inplace",
                "label": "address payable",
                "numberOfBytes": "20"
            },
            "t_bool": {
                "encoding": "inplace",
                "label": "bool",
                "numberOfBytes": "1"
            },
            "t_mapping(t_address,t_bool)": {
                "encoding": "mapping",
                "key": "t_address",
                "label": "mapping(address => bool)",
                "numberOfBytes": "32",
                "value": "t_bool"
            },
            "t_mapping(t_uint256,t_struct(Request)54_storage)": {
                "encoding": "mapping",
                "key": "t_uint256",
                "label": "mapping(uint256 => struct Campaign.Request)",
                "numberOfBytes": "32",
                "value": "t_struct(Request)54_storage"
            },
            "t_string_storage": {
                "encoding": "bytes",
                "label": "string",
                "numberOfBytes": "32"
            },
            "t_struct(Request)54_storage": {
                "encoding": "inplace",
                "label": "struct Campaign.Request",
                "members": [
                    {
                        "astId": 41,
                        "contract": "Campaign2.sol:Campaign",
                        "label": "description",
                        "offset": 0,
                        "slot": "0",
                        "type": "t_string_storage"
                    },
                    {
                        "astId": 43,
                        "contract": "Campaign2.sol:Campaign",
                        "label": "value",
                        "offset": 0,
                        "slot": "1",
                        "type": "t_uint256"
                    },
                    {
                        "astId": 45,
                        "contract": "Campaign2.sol:Campaign",
                        "label": "recipient",
                        "offset": 0,
                        "slot": "2",
                        "type": "t_address_payable"
                    },
                    {
                        "astId": 47,
                        "contract": "Campaign2.sol:Campaign",
                        "label": "complete",
                        "offset": 20,
                        "slot": "2",
                        "type": "t_bool"
                    },
                    {
                        "astId": 49,
                        "contract": "Campaign2.sol:Campaign",
                        "label": "approvalCount",
                        "offset": 0,
                        "slot": "3",
                        "type": "t_uint256"
                    },
                    {
                        "astId": 53,
                        "contract": "Campaign2.sol:Campaign",
                        "label": "approvals",
                        "offset": 0,
                        "slot": "4",
                        "type": "t_mapping(t_address,t_bool)"
                    }
                ],
                "numberOfBytes": "160"
            },
            "t_uint256": {
                "encoding": "inplace",
                "label": "uint256",
                "numberOfBytes": "32"
            }
        }
    },
    "userdoc": {
        "kind": "user",
        "methods": {},
        "version": 1
    }
}